:020000021000EC
:108000000040002011C8010059C801005BC80100F0
:108010000000000000000000000000000000000060
:108020000000000000000000000000005DC801002A
:1080300000000000000000005FC8010061C80100EE
:1080400063C8010063C80100858F010063C8010097
:10805000F5C50100000000006998010063C8010037
:10806000FDC6010059C70100B5C7010063C8010082
:1080700063C8010063C8010063C8010063C8010050
:1080800063C80100B584010063C8010063C8010032
:108090009985010063C8010061BE010063C8010049
:1080A00063C8010063C80100000000000000000078
:1080B00000000000000000000000000000000000C0
:1080C000402292029A1A92467047C046174B002BE4
:1080D00000D1134B9D46FFF7F3FF00218B460F465F
:1080E0001348144A121A00F065F80E4B002B00D00A
:1080F00098470D4B002B00D098470020002104002A
:108100000D000D48002802D00C4800E000BF00F030
:108110002DF82000290002F091FC00F011F8C04673
:1081200000000800000000000000000000400020E7
:108130007C20002008290020000000000000000032
:10814000084B10B50400002B02D0002100E000BF56
:10815000054B1868836A002B00D09847200000F078
:1081600031F8C0460000000068D9010070B5002653
:108170000C4D0D4C641BA410A64209D1002605F03D
:10818000E7FB0A4D0A4C641BA410A64205D170BD42
:10819000B300EB5898470136EEE7B300EB58984729
:1081A0000136F2E77C2000207C2000207C2000208B
:1081B0007C20002003008218934200D17047197080
:1081C0000133F9E7FEE70000F8B54546DE465746BD
:1081D0004E46E0B5234B19789846002929D0224B0A
:1081E000002401259946214F214E03E00134E4B2D9
:1081F0008C421ED23A68E300D0188246D05C2A0036
:10820000824033681A42F1D09343336001F022FB7D
:1082100053461A782B004946934009680B400100E9
:1082200091408B420BD0434601341978E4B28C4222
:10823000E0D3F0BCBB46B246A946A046F8BD5346C3
:108240005B689B46002BEED05146497801390B0004
:1082500059425941091A484241411000C9B2D84710
:10826000E1E7C0467C2000208820002090200020EC
:108270008C200020F8B5124E0400306800F094FD08
:10828000002807D10125A5400E4F3B681D4202D0B2
:10829000AB433B60F8BD200001F0DCFA0A4A1368EA
:1082A00000280BD1AB4313603B6800221D43074BF2
:1082B000306819683D6000F0EDFCEBE72B43F2E716
:1082C000842000208C200020882000208020002096
:1082D000F0B5CE46474680B506000D00140083B0C9
:1082E000042A36D901F00CF900282DD01D4B1E4A66
:1082F0001E601E4B1D701E4B1C60002313601D4A28
:108300006C1E1360E4B2002D25D01B4BE40099468F
:10831000032300279846341901AD04E02300083BED
:10832000A64218D01C0043462B70A3784A46290069
:1083300020786F806B7001F053F90028EED003B005
:10834000C0BCB946B046F0BD01F0AAF80028CDD0B7
:10835000F5E70720F3E70021084A094800F072FC1E
:10836000EDE7C04690200020882000207C200020DF
:10837000802000208C20002075820100C98101002E
:108380008420002070B5094D2B78002B0BD00024E1
:10839000074E3268E300985C012101F001FA2B7866
:1083A0000134A342F5D8002070BDC0467C200020D7
:1083B00090200020BFF34F8F024B034ADA60BFF3D7
:1083C0004F8FFEE700ED00E00400FA0510B500292C
:1083D0000ED0002A0AD01400531E1C401A4205D1A8
:1083E000846001608380C460002010BD0920FCE728
:1083F0000E20FAE7030010B59C888068DA68121A2C
:108400000420944207D30020DA6814401A681155FA
:10841000DA680132DA6010BD8268C3689A420AD015
:108420008368828813400268D35C0B7083680133D1
:108430008360002070470520FCE7C0468021802330
:10844000184A8902D1508022D221174B520289004A
:108450005A5040395A5001222F205A600138C046E4
:10846000C046C046C046C046C046C046C046C046DC
:10847000C046C046C046F1D19A6000230B4A2F2067
:1084800013600138C046C046C046C046C046C0461C
:10849000C046C046C046C046C046C046F1D1044AA8
:1084A0001370704700E100E000100140A820002098
:1084B0009A200020A021F0B50022C6462C4B49008E
:1084C00000B55A5004315A5004315A5004315A50B0
:1084D0004C395A5004315A50264A15686A1C36D015
:1084E000254A00269C58254B254F1B68E41A254B2E
:1084F00024029846240A05E010009847002829D154
:108500006B1C15D042461268EB0094465B199B0029
:1085100063445A68A2420BD81D6AD969A41AB618D6
:108520009A693B68002BE7D1080090476B1CE9D1A2
:108530001549164A0B7812789A4210D0144A9B00BB
:108540009E5080218023134A5B004903D15080BC98
:10855000B846F0BD00220021FFF72CFFD0E7013222
:10856000D3B2022B01D00B70E8E700230B70E5E7D4
:1085700000100140AC20002004050000A8200020CD
:1085800094200020B4200020A5200020A42000205A
:108590009C20002000E100E0F0B54E46DE46574644
:1085A0004546E0B5D04BD14A9946D1491B6893B0B6
:1085B000039309781378994200D1FDE10133DBB2CE
:1085C000022B00D151E11370CA4A9B009A58039BB9
:1085D00094460F924A4663441B021B0A1360089399
:1085E000C54B0A931B680593C44B1A78531EDBB224
:1085F0000793012311921093002A00D118E2C04A78
:10860000C04B93461768C04A9A46049212781B687A
:108610000992079A0E93D20094460B92089A6344EB
:10862000029200221800059B01920692017844787C
:108630008C4225D04E007618857801314268C9B247
:108640006D1A94466A1E95414268F600925D6D422D
:10865000B4442940022A1AD0032AE9D15A1CE7D08F
:108660001A00D3009B1800229B00FB181A751A6A87
:10867000531CF6D144781300023201928C42D9D1B6
:1086800002000E99083A814252D01000CEE76246AD
:108690005568EA005619B600B046B8444646367DDD
:1086A0000C96002EC4D05C1C10D09D4200D17FE1FE
:1086B0009C460D9201E065450DD06646F400A41974
:1086C000A4003C19226A94460132F4D100244246A7
:1086D00014754478ACE70D9AB54214D05219920043
:1086E000BA18166A55682662721CEFD0F200921909
:1086F0009200BA185468A446654400245560424666
:108700001475447894E7DE00F31852199B00920028
:10871000FB18BA180C9D1B6A01955D1CE1D101265E
:108720007A4DAE60019D0695099500250295D8E722
:10873000069A002A00D152E1049A099911704A461A
:1087400002991160019A002A00D14EE10A9A136041
:10875000059AD11A4A1E9141CAB201920127109A74
:108760007F42002A00D0C3E1524659461268096888
:1087700094468A4604991C000978D94609910B99B8
:108780009B466144BC460892634600220D0003925A
:1087900001332CD06346DB0063449B0053441A6AC8
:1087A000664694469968DF68029A59488A1A120206
:1087B000120A824250D8D7195F6000229A60DA60AC
:1087C00001321A75023A1A62621C70D0E200121964
:1087D0009200524458685168884248D8091A51603A
:1087E0001C6201233400039363460133D2D12978FC
:1087F0006F78B94254D06B680593AB780693059BAC
:108800004A0098465218069B0131D200C9B2424430
:10881000994250D029701378012B3FD15668F3004C
:108820009B199B005344187D002837D191688046DE
:108830009960D768DF60106918615269DA61099A36
:10884000002AB1D0424600219A60029A30488A1A22
:108850001202120A8242AED9029A511A0902090A78
:10886000B9423CD2791A5960A7E70023ABE627004A
:1088700005930697176A0790401A7B1C1FD13A0090
:10888000059B05971A62069A58609046D3004344A8
:108890009B0053441E6226003400A5E78F42AED1F0
:1088A0002B00089A083BAA4234D01D009FE7012301
:1088B0003400039398E7002300212B70ABE7FA0004
:1088C000D219920052445368984683420AD3059BBA
:1088D0000597079F4144C91B5160059AD2E70022C2
:1088E0005A606AE74146C4E7A8200020A42000207F
:1088F000A52000209C200020AC200020B0200020DB
:10890000B4200020B8200020992000200010014051
:10891000FEFF7F00039A5B46CB46002A3FD00A9AAF
:1089200014609C423CD0631C3FD05B461A68E30055
:108930001C19A40014197248724A63688158029A7B
:10894000714C8A1A12022578120A0332002D4ED079
:10895000934200D21300029AA82094466344684AC6
:108960001B021B0AC000135066485B1A12581B02F8
:10897000521A1202120A03321B0A9A4205D98023A4
:108980008021624A5B008902D1500023049A13704F
:1089900013B0F0BCBB46B246A946A046F0BD1C00D1
:1089A000019B002BF1D0631CBFD1FFF747FDECE723
:1089B000444642464346ADE6554B0A931B68059331
:1089C000544B1A78531EDBB211920793002A00D140
:1089D00088E0039B089300230F9310930FE6089AF7
:1089E0000292019A002A00D0B0E6059BB6E68025E7
:1089F000D1266D02B6008551403E8551C0278026A4
:108A0000424DB6027F00EE512E60012505602F20F9
:108A10000138C046C046C046C046C046C046C046F3
:108A2000C046C046C046C046C046F1D125708FE75B
:108A3000059B013359D0089B0293FF230793364BC4
:108A40009B46364B04935B461B6801279C460025DA
:108A50007F42290000240026B946654605980F9BF1
:108A600016E01169DB1BE4198846176A5660167513
:108A7000002909D0039909190902090A91604146A0
:108A8000D16049468146116201217A1C20D038000C
:108A9000C20012189200AA1857689F42E1D90D002F
:108AA0000F9339004F46002D1AD00A9B186003001F
:108AB0000F981C00091A5160119A002A00D134E75E
:108AC00001220192164A9246079AD2000B924BE677
:108AD0003B000A9A4F461360119A002AF0D164E7CE
:108AE000059BE5E70D4B04934FE70C4B04935CE7C4
:108AF00005935A1CA7D1109A1F00019234E6C04674
:108B000000100140040500009A20002000E100E070
:108B1000AC200020B0200020B420002099200020AC
:108B2000B8200020F8B557469A46DE461C0093460A
:108B3000032352464E4645461A40E0B580460F0094
:108B400091461C4261D1002C5FD0FFF777FC304B7F
:108B50000A9A1A602F4B1F702F4B1C60002F07D0F2
:108B6000002500260135267026752434AF42F9DC35
:108B700003212A4AFB00DB1911709B00284A594641
:108B8000534413601A0049005944C90018325A600E
:108B90005218DA6000205D4652185A610122002402
:108BA00018809D70188118829D729D741D4B5242D1
:108BB0001A601D4B80211C701C4BC5201C70C023EB
:108BC000FF241B4A49035B00D15080001358A34384
:108BD0003F3C23431350A1231160C4244146154850
:108BE000DB00C150A400135913491940C0231B02D4
:108BF0000B431351114BC258114B1A604846F0BC3D
:108C0000BB46B246A946A046F8BD07239946F5E7FC
:108C10009420002098200020B4200020B0200020C4
:108C2000B8200020AC200020A4200020A520002097
:108C300000E100E000100140FF00FFFF040500001C
:108C4000A820002070B5114B1B68002B1BD0002AF8
:108C500017D0002815D00E4C2678002E0FD00024F7
:108C600003E001342433B44209DA1D78002DF8D131
:108C700001351D7059709A610460002070BD042098
:108C8000FCE70720FAE70820F8E7C046B4200020F8
:108C900098200020F0B5C64600B53B4B1C68002C60
:108CA00042D03A4B1B78834242D9042940D9C300B1
:108CB0001B189B00E518E35C012B35D16B78012B69
:108CC00052D000239C46324B10255C68E405E30D2E
:108CD000002C2FD12F4B1B685D196F78AC787E1C50
:108CE000341B631E9C412B7864422640B34247D01C
:108CF0006C687B00A046DB19DB004344002B3FD0AF
:108D0000012458601C702448244C2058D9606146C6
:108D1000986019615A6180218023214A5B004903D0
:108D20006E700020D15000E0082080BCB846F0BD35
:108D30000720FAE7103B5CB21D0617D4A408184DB3
:108D4000C034A400655903242340DB00DD40AB0997
:108D50002340DDB2012B15D0033D6B1E9D416B42BC
:108D600008251D400835B5E78C46ACE70F240D4DAE
:108D70001C40A846083CA408A40044446568E2E7F7
:108D80000420D2E70025A5E7B42000209820002089
:108D900000ED00E0B82000200405000000100140B4
:108DA00000E100E018ED00E030B5334A030011683F
:108DB000002950D0314A127882424AD9C200121892
:108DC0009200525C0820012A00D030BD2C4A1021AC
:108DD0005068C005C20D002821D12A4A12685118D6
:108DE00048788A78441CA21A551EAA41524214405F
:108DF0000A78A2423BD0420012184868D20084464A
:108E00006244002A33D002205360107080234C70DB
:108E100080211D4A5B0049030020D150D5E7103A5C
:108E200051B2100619D489081748C0318900085872
:108E300003210A40D200D04082090A40D1B2012A5F
:108E400017D003394A1E91414A4208211140083186
:108E5000C3E70720B9E70820B7E70F210B48114007
:108E6000844608398908890061444868E0E704209D
:108E7000ABE70021B1E7C046B420002098200020D5
:108E800000ED00E0B820002000E100E018ED00E077
:108E900070B5161E07DD0C008D182078013400F027
:108EA00063FAAC42F9D1300070BDC04610B50C0079
:108EB000200000F051FA0528FAD0012010BDC0466C
:108EC00030B585B000F0C6FC002808D0284A1378D9
:108ED000D9B2012B10D002290BD005B030BD244CE3
:108EE0002378DAB2002B10D0032AF6D102232370A4
:108EF000F3E703231370F0E700201070A0221D4B4E
:108F0000D200D96059609850E7E7A0220421194B9C
:108F1000D2009950012218481A608568C1688D42B4
:108F200018D02178022900D09A606B46D91DFFF72E
:108F300073FA002810D1C22180220E4B89005A50AA
:108F40006946C8790D49585002212170C121890014
:108F50005A50C2E72270C0E70123064A02A8D36034
:108F6000237002330370064B1B689847B5E7C04671
:108F7000BC20002000200040D42000201C05000060
:108F8000C0200020842210B5404B5200995884B074
:108F900000294CD18E223D4B52009958002914D102
:108FA00092223A4B5200995800290CD00021995036
:108FB0009021C9005A5802A85A5002230370344B1A
:108FC00042601B68984704B010BD0020314C985097
:108FD0002178CAB2022909D9032AE1D1023A2070C4
:108FE000DA605A60A022D2009850D9E7002AD7D080
:108FF00029488168C268914238D02278022A01D07B
:1090000001229A606B46D91DFFF706FA002837D176
:10901000C22180221D4B89005A506946C8791F49D8
:10902000585002212170C12189005A50B8E700210F
:109030009950A322D2009958194CC9B22000FFF7C9
:10904000D9F9031E0AD1A168E268521A012AA1D1F6
:1090500002A803700E4B1B6898479BE701220393FD
:109060000B4B02A81B680270984793E70122DA6055
:109070002270032302A80370054B1B6898478FE7F3
:109080000123024AD3602370F3E7C046002000406A
:10909000C0200020BC200020D42000201C0500009F
:1090A000C4200020F0B5454657464E46DE46E0B5A2
:1090B00089B0019300239A4F05003B70994B0E1E17
:1090C00098461A6000D17CE08A8897480968FFF7C3
:1090D0007DF9041E07D0200009B0F0BCBB46B246A3
:1090E000A946A046F0BD914BB2891800B1689946D7
:1090F000FFF76CF9041EEED1A02203216B78D20594
:10910000C133FF339B0099502B78C133FF339B0051
:1091100098506978864B874A99502978864A9950A1
:10912000A968864A99506A79002A46D1844A98509B
:109130002B79022B61D0012B45D0A02204217C4B3E
:10914000D200995000220531FF315A507C48143129
:109150005A5019580132914319500121643849423B
:109160001950083019509A601A603A70129B1B8887
:10917000002B05D1734A1378591C1170129A138071
:10918000C22201216A4B920049429950A121043A1E
:1091900089009950C02304216B4A5B00D150019D86
:1091A000C020AE05FF2580002D0413582E40674DCA
:1091B0002B401E43165011608DE70E21604A9950D6
:1091C000B6E7072487E7A0210420594AC900505078
:1091D00000210530FF3011501430115058481158FB
:1091E00019431150A221E878C9005050A8780839D5
:1091F0005050936013603B70B8E700F081F900288D
:109200003ED004AB9A46032200211800FEF7D2FF9D
:10921000534601225A705146A87800F079F98246E7
:10922000002832D1424B01229B46A2235946DB0043
:109230005242CA50AA78083BCA50414A8B58012171
:109240000B4359468B5003230593E878404A05A900
:1092500000F0C6F98246002817D10121E87800F015
:109260009FFAE87800F0F6FA3B78DAB200280ED0E0
:10927000012B14D0022A00D078E703233B7075E756
:1092800000F00EF982460028BBD0544623E7002B9D
:1092900010D0032A00D069E702233B7066E75346EB
:1092A0003B705B46DA605A60A0235A465146DB00A9
:1092B000D1505BE7A02304225946DB00CA505B462D
:1092C000012119604B469A68DB689A421AD03B78B4
:1092D000022B01D05B46996002ABDD1D2900484698
:1092E000FFF79AF8002810D1C2218022104B890084
:1092F0005A5028781749585002213970C1218900E5
:109300005A5033E701233B7030E70123084A06A88F
:10931000D3603B700233037043461B68984725E7D0
:10932000BC200020C0200020C4200020D420002029
:10933000002000400C05000014050000240500007A
:109340006C0500006420002000E100E0FFFF00FF4A
:10935000C18E01001C05000010B501000148FFF797
:109360005BF810BDC420002070B51A4D010084B018
:109370002800FFF73FF8184E04003378DAB2012BCB
:1093800002D0200004B070BD3378022B01D0134B03
:109390009A606B462800D91DFFF73EF800280ED1D1
:1093A000C22180220D4B89005A506946C8790C4968
:1093B000585002213170C12189005A50E1E7012340
:1093C000064A02A8D360337002330370054B1B6852
:1093D0009847D6E7D4200020BC2000200020004081
:1093E0001C050000C020002082B00190019B002BD2
:1093F00014D0019B0A48013B01930138C046C04686
:10940000C046C046C046C046C046C046C046C0462C
:10941000C046C046F1D1019B002BEAD102B0704793
:10942000E7030000F0B500281EDB1B4B84089C46B8
:109430000323C2B21840FC331F00C026C0008901BC
:1094400087400B408340A4006444B600A559BD4347
:109450002B43A3511F23C0211A401E3B93400E4AA9
:10946000490053501360F0BD0C4C0325A4460F2354
:10947000FF240340C2B228402500C0008901854076
:109480000C408440083B9B089B006344DE69AE436C
:109490003443DC61DEE7C04600E100E000ED00E0BF
:1094A00010B5154C2378002B23D15022013BA35239
:1094B00001210620E36223636363A363E363236400
:1094C0006364A364E3646360A360E3602361636136
:1094D000A361E36123626362A362FFF7A3FFC12379
:1094E0008021064A9B000906D150012300202370E9
:1094F00010BD0820FCE7C046E420002000600040CA
:10950000024B1878431E9841C0B27047E4200020F7
:10951000F0B500252E4C030022182C325557082098
:10952000013500D0F0BD8878002831D06268013262
:1095300048D0A268013247D0E268013246D02269A1
:1095400004200132EED10138224DE218AC46A225AA
:109550002C3210708000ED0024180022604446591F
:109560001D4F62603E40C0270A78BF0212043A4095
:1095700080274C787F0324053C40F827465122433E
:109580007F011C0246593C4022433243425101E0D4
:10959000FE2010701A00A0200324C132FF32920076
:1095A000C00514504A78012A06D001229A401300BF
:1095B0000A4A83500020B5E79A40A123DB00C2503D
:1095C0000020AFE70020BFE70120BDE70220BBE796
:1095D000E420002000600040FFE0ECFF0C050000EC
:1095E000F0B5CE46474680B56A4C030027182C37A5
:1095F0003D78914608207F2D53D9CE78002E54D146
:109600006269013200D1BEE0A269013200D1B3E04B
:109610000A270625A8002218526801324FD06A1C7A
:109620009446BA4200D399E0900022185268013261
:1096300044D0AA1C9446BA4200D38FE0900022186E
:10964000526801323AD0EA1C9446BA4200D385E00F
:10965000900022185268013230D02A1D9446BA4236
:1096600000D37BE0900022185268013226D06A1D98
:109670009446BA4200D371E0900022185268013239
:109680001CD0AA1D9446BA4268D290002218526893
:10969000013213D007350420BD4202D2A26A013242
:1096A0005ED0C0BCB946B046F0BD626801325DD044
:1096B000A268013257D004270225ABE76546E218BD
:1096C00094462C229046C44462466FB217704A46B4
:1096D00020184260002E02D1651948352B708A7817
:1096E000002A26D0A020C0058446E02502269A0044
:1096F0006244ED005059B0435051CA78002A24D03A
:109700000A782549BC008C46A2216444C9006058EF
:10971000224D1B022840F8256D012B40C0256050CA
:109720001204AD0260582A401343034363500020E3
:10973000B7E71A00A0254878C132FF3292008000B6
:10974000ED055051CA78002ADAD1E4190B78483473
:1097500022789B01134300202370A2E70420A0E796
:1097600009252030ABE701250420A8E700204A4660
:10977000387062600027B2E705204A463870052538
:109780000527A261A8E704254A463D7062612F00C3
:10979000A2E7C046E420002000600040FFE0FCFF9C
:1097A00030B5294B1A182C32127852B2032A1FDD19
:1097B0009B1848331B789B09032B34D0013B5A1E5E
:1097C000934180225B4252021340802292029446CF
:1097D0006344A022D2059446E02280006044D20077
:1097E00081581A4C2140815081580B43835030BD21
:1097F000D3B2032BFBD81648A2258446012493003C
:109800006344ED0058592043585113006046002529
:1098100040339B009BB21D500029E8D0C1239440E7
:109820009B00C450E3E7A022A223D205DB00D3585B
:109830000122824013405A425341C0229202944670
:109840005B421B046344C4E7E4200020FFFFFCFFED
:1098500000600040A022A223D205DB00D358C34001
:10986000012018407047C046F0B5D6464F464646E0
:10987000C0B5C84900230A68012A00D158E1C64A88
:109880001168012900D147E1C44A1168012900D1BA
:1098900036E1C34A116801290BD0C24A1268012A75
:1098A00000D11DE1002B13D1E0BCBA46B146A84659
:1098B000F0BDC121BC488900405808210142ECD0CC
:1098C00000201060B74A0B431268012A00D107E15B
:1098D0001E000023984603239A46B44BA227012575
:1098E00000249946FF002E420CD0AF4AA3009A18DC
:1098F000D059D1595246090CC0044B445B68114001
:10990000C00E984701346D00042CECD1002ECBDA48
:109910004C23A64CE15C74330800984323182C3385
:109920001B785BB2032B18DD9B00E3185D68002DEC
:1099300013D0A0230126DB059C46E0238640474642
:1099400082006244DB00D35889099B039B0F374296
:1099500000D001E1032B00D155E14D23E15C7333CD
:109960000800984323182C331B785BB2032B18DDB7
:109970009B00E3185D68002D13D0A0230126DB05B2
:109980009C46E0238640474682006244DB00D35871
:1099900089099B039B0F374200D0ECE0032B00D1D9
:1099A0000FE14E23E15C72330800984323182C33F7
:1099B0001B785BB2032B18DD9B00E3185D68002D5C
:1099C00013D0A0230126DB059C46E02386404746B2
:1099D00082006244DB00D35889099B039B0F374206
:1099E00000D0E7E0032B00D11EE14F23E15C71338F
:1099F0000800984323182C331B785BB2032B18DD27
:109A00009B00E3185D68002D13D0A0230126DB0521
:109A10009C46E0238640474682006244DB00D358E0
:109A200089099B039B0F374200D0ACE0032B00D188
:109A3000D8E05023E15C70330800984323182C339E
:109A40001B785BB2032B17DD9B00E3185D68002DCC
:109A500012D0A0230126DB059C46E0238640474622
:109A600082006244DB00D35889099B039B0F374275
:109A70007AD1032B00D1E8E05123E15C6F33080079
:109A8000984323182C331B785BB2032B00DC0BE7C5
:109A90009B00E4186568002D00D105E7A023012490
:109AA000DB059C46E0238440464682006244DB009E
:109AB000D35889099B039B0F264245D1032B00D025
:109AC000F2E603290AD18027BF02E023DB00D65843
:109AD000374C2640D650D4583C43D450A847E3E6F0
:109AE0000021304A80261160A021A222C905D2009F
:109AF0008A58360690461E43002B00D0EBE607E757
:109B0000C1212948890040580421014200D1C0E602
:109B100000200B431060BCE6C12123488900405857
:109B20000221014200D1AFE600200B431060ABE6FA
:109B3000C1231D489B00C05813000340024200D1BE
:109B40009DE600220A609AE6022B00D0ACE60329CB
:109B5000C4D1C027BF02B8E7022B00D0FDE603291D
:109B600000D18BE0A847F8E6022B85D1032900D16C
:109B70008CE0A84780E7022B00D012E7032900D130
:109B800080E0A8470DE7022B00D052E7032971D0EF
:109B9000A8474EE7006100400461004008610040B2
:109BA0000C6100407C61004000600040E420002027
:109BB000FFFFFCFF022B00D017E7032956D0A84770
:109BC00013E70329DDD180239B029C46E023DB00C1
:109BD000D758304E3740D7506746D6583E43D650B8
:109BE000A847DEE60329D3D180239B029946E023D0
:109BF000DB00D758274E37404E46D750D7583E4304
:109C0000D650A84715E70329ACD180239B029C4678
:109C1000E023DB00D7581F4E3740D7506746D65851
:109C20003E43D650A84798E60329C8D180239B021B
:109C30009946E023DB00D758164E37404E46D750A2
:109C4000D7583E43D650A847CFE6032991D1802369
:109C50009B029946E023DB00D7580E4E37404E4614
:109C6000D750D7583E43D650A84705E7C0239B029C
:109C70009946DEE7C0239B029946B8E7C0239B02C2
:109C80009C46C5E7C0239B029C469FE7C0239B02DE
:109C90009946DFE7FFFFFCFF074B1B78002B06D040
:109CA000002806D0054B5B78036000207047082031
:109CB000FCE70E20FAE7C0460422002038210020ED
:109CC0008021A022C90310B50C00A120044BD205AD
:109CD000D358C0009C430B4002491450535010BD50
:109CE000040500000C050000F8B5CE464746040008
:109CF00080B5102805D0112847D0C0BCB946B04661
:109D0000F8BD0025012919D0022927D00029F4D156
:109D10001F4B1868FFF748F81E4B6A0052199B1832
:109D20009E781D4B5B5DB342E7D1002EE5D01B4B07
:109D30001B68002BE1D030009847DEE7154F6B0021
:109D400098465B19FE5CFB185B78002B0CD14346F0
:109D50005B19FF18BA78104B5A55E6E76B005B1990
:109D60000C4DED186E78E0E70D4B99460D4B4A46C9
:109D70001B689900C918064B49001868FEF78AFF4E
:109D80000028E4D14B461C70E1E70125BAE7C04644
:109D900010220020142200202C2200202422002047
:109DA000052200200C220020F8B5B14B1B68DB0710
:109DB00000D4F8BDAF4B1C78172CFAD8AE4AA300DC
:109DC000D3589F46AD4D2868FEF7EEFF11231A1BAE
:109DD000A34200D12DE1002800D02AE1012A0BD0B6
:109DE000C8306421504302F03DFDA54B00221968A4
:109DF00041432868FEF74EFFA0238021A14ADB05DE
:109E0000C90399500021043A9950D2E7A023C021F8
:109E10009C4ADB05F4E78021A022C9030C00A120A5
:109E2000994BD205D358C0009C430B409549145020
:109E30005350934B00221968944B1868FEF72AFF81
:109E4000B7E78021A022C9030C00A1208E4BD205C8
:109E5000D358C0009C430B408A4914505350884B40
:109E600000221B689900C918884B1868FEF712FF7A
:109E70009FE7A023A1250020824EDB05824AED004A
:109E8000585198519958C022D2034A408021170056
:109E900089030F400A4200D1DBE0023C5951614284
:109EA000614198511523494299432831744B00224E
:109EB0001B685943754B1868FEF7ECFE79E7A02341
:109EC000A12400206F4DDB056F4AE4001851585162
:109ED0009958C022D2034A408021160089030E40BF
:109EE0000A4200D1BFE0082219515851644B196849
:109EF000664B514318680022FEF7CCFE59E7A023B9
:109F0000A12400205F4DDB055F4AE4001851585141
:109F10009958C022D2034A408021160089030E407E
:109F20000A4200D18BE0195128225851DEE7A023C4
:109F3000A1240020534DDB05534AE4001851585129
:109F40009958C022D2034A408021160089030E404E
:109F50000A4278D019515851494B002219684B4B8D
:109F600049001868FEF796FE23E7A023A12180246C
:109F700000224448DB05C900A4035A501A501C5063
:109F80005A5016E7A023A121C02400223D48DB053A
:109F9000C900E4035A501A501C505A5009E7A02334
:109FA000A1228021DB05D200890380249950002161
:109FB0003448E40319501C509950FAE6A023A12418
:109FC0000020304DDB05304AE400185158519958B3
:109FD000C022D2034A408021160089030E400A4263
:109FE00034D01951585124E7A023A1228021DB0548
:109FF000D200890399500021224A9950D9E6A02322
:10A00000A122C021DB05D200C903995000211D4ABD
:10A010009950CEE6A023A1228021DB05D200C903FE
:10A020008024995000211748A40319501C509950BE
:10A03000BFE6A023A1228021DB05D200E4E759512D
:10A0400004221E5152E759511E5185E759511E51A4
:10A05000EFE6023C9951614261415F51012349425F
:10A060009943043122E7595102221E513EE7C0466E
:10A070001C220020282200206CD901000822002088
:10A080000C2200200C050000040500002022002006
:10A0900010B50378102B03D00122112B01D010BD75
:10A0A000002253009A18054B9B1858780028F6D0C8
:10A0B000034B1B68002BF2D09847F0E714220020D6
:10A0C00024220020002301280DD8A022A223D2059B
:10A0D000DB00D258054B8000C058012383409343D6
:10A0E0005A1E9341DBB200200B7070473CDA01002E
:10A0F000F8B5D14A040012680123100018401A4232
:10A1000000D1F8BD172C00D994E1CC4AA300D35854
:10A110009F468021A022C9030C00A120C84BD20574
:10A12000D358C0009C430B40C64914505350C64BF3
:10A1300000221B689900C918C44B1868FEF7AAFDD5
:10A14000DFE78021A022C9030C00A120BC4BD2056F
:10A15000D358C0009C430B40BA4914505350BA4BDB
:10A1600000221968B94B1868FEF794FDC9E7A023CF
:10A17000A12180240022B348DB05C900A4035A5062
:10A180001A501C505A50B24B073200201A70B8E7D0
:10A19000A023A1228021DB05D200890380249950CD
:10A1A0000021A848E40319501C5099501422A84BD0
:10A1B00000201A70A5E7A023A121C0240022A148F5
:10A1C000DB05C900E4035A501A501C505A50A04BEA
:10A1D000153200201A7094E7A023A1240020994D85
:10A1E000DB05974AE400185158519958C022D20310
:10A1F0004A408021160089030E400A4200D10BE13B
:10A20000195158510622924B1A70A8E7A023A12495
:10A2100000208C4DDB058A4AE400185158519958AA
:10A22000C022D2034A408021160089030E400A4210
:10A2300000D1F4E0195158510522854B1A70824B18
:10A2400000221968814B49001868FEF723FD58E782
:10A25000A023A12400207B4DDB05794AE40018519E
:10A2600058519958C022D2034A40802116008903D0
:10A270000E400A4200D1D5E019515851283004222D
:10A28000734B1A70704B00221968704B4143186869
:10A29000FEF700FD35E7A023A1240020694DDB0572
:10A2A000674AE400185158519958C022D2034A40D5
:10A2B0008021160089030E400A4200D1B6E01951F0
:10A2C000585108300322624BDBE7A023A125002070
:10A2D0005C4EDB055A4AED00585198519958C022FE
:10A2E000D2034A408021170089030F400A4200D15F
:10A2F00088E05951A11E98514B42594115234942BA
:10A3000099432831524B00221C704F4B1B68594314
:10A310004E4B1868FEF7BEFCF3E6A023A122802175
:10A32000DB05D200C9038024995000214548A403CD
:10A3300019501C5099501322454B00201A70E0E62A
:10A34000A022A1238021D205DB008903D150002364
:10A350003C49002053503E4A1370D2E6A023C0214E
:10A36000384ADB05C90399500021043A9950384B0B
:10A3700000201C70C5E6374D2868FEF715FD112337
:10A380001A1BA34233D0002831D1012A0BD0C83088
:10A390006421504302F066FA2B4B002219684143B6
:10A3A0002868FEF777FCA0238021264ADB05C90335
:10A3B00099500021043A9950A3E6A023C021214AD4
:10A3C000DB05C90399500021043A0020995098E612
:10A3D000A023A122C021DB05D200C903995000218E
:10A3E000184A002099501222194B1A7089E6A023AE
:10A3F000A1228021DB05D200C90399500021114A16
:10A4000099507EE69951A11E5F514B42594101235B
:10A4100049429943043175E759511E51F2E65951A9
:10A420001E5109E7595104201E5128E759510220B5
:10A430001E5147E7002064E61C220020CCD9010011
:10A44000040500000C0500000C2200202022002042
:10A450002822002008220020284B10B51960284B24
:10A4600004001860274B1A6002231A0002400342BE
:10A4700028D00D22244B25481A700132DA704A0880
:10A480000221FDF725FF00282BD0E30719D5A023D3
:10A49000C022A1210024DB05D203C9005A501C4967
:10A4A0005C500C315A5000280BD10021194A1A482F
:10A4B000FEF7C8FB002804D10121184A1848FEF70E
:10A4C000C1FB10BDC307F0D5A023C021A120DB052F
:10A4D000C903C00019500E481A50A322D200995047
:10A4E000E3E7FDF74FFF0028CFD100210D4A0E48CA
:10A4F000FEF7A8FBE307D6D5C9E7C0460C2200202B
:10A500001C22002024220020142200202CDA01002A
:10A510000C050000A99D010020220020C19C010023
:10A520000822002091A00100102200200300072033
:10A53000012B08D8012A07D001290BD002290FD0FE
:10A54000002914D00720704700220129F6D11A00F3
:10A550000D32D2B258000949C3185A540020F2E70C
:10A560005800C018054B1B185A700020EBE7580024
:10A57000C018024B1B189A700020E4E71422002038
:10A58000A022E8230121DB00D205D2580B000340B2
:10A59000014201D0C0239B020C490A401343E82129
:10A5A000A022C900D20553500221094BD2580B00FA
:10A5B0000340014201D0C0239B02044900200A400D
:10A5C000A0211343024AC9058B507047FFFFFCFFCF
:10A5D0004407000010B50320FFF7D2FF002804D085
:10A5E000831F5A1E93415B42184010BD10B503886B
:10A5F000102B08D0112B05D1294A1368013B136099
:10A60000002B07D010BD264C2368002B24D001332B
:10A610002360F7E7012202210020FFF787FF0028CF
:10A6200007D0072805D01F4B1B68002BEAD098479E
:10A63000E8E7072202210120FFF778FF002801D078
:10A640000728F0D10A2200210020FFF76FFF002821
:10A65000D8D00728E7D1D5E7012200210020FFF755
:10A6600065FF002808D0072806D00E4B1B68002B7A
:10A6700000D098472368CAE7072202210120FFF78C
:10A6800055FF002801D00728EFD104220221002025
:10A69000FFF74CFF0028EDD00728E6D1EAE7C046D7
:10A6A000342200203022002010B5234B0C0082B051
:10A6B0001860002915D06B460020991DFFF702FD98
:10A6C000002801D002B010BD6B460130D91DFFF744
:10A6D000F9FC0028F6D16B46DB79002B23D002234E
:10A6E0002370164B1B68002B01D00020EAE70122E3
:10A6F00002210020FFF71AFF002801D00728E1D12E
:10A70000072202210120FFF711FF002801D00728AE
:10A71000D8D10A2200210020FFF708FF0028E4D04A
:10A720000728CFD1E1E76B469B79002B02D00B23A2
:10A730002370D6E72370D4E7302200203422002093
:10A7400076DF70477ADF70477CDF70477FDF7047C6
:10A75000A9DF704760DF70473CDF704748DF704714
:10A7600010B500220021FDF725FE10BDF8B50F0041
:10A7700016000C000025002A08D02078FEF7F4FD12
:10A780000028FAD101350134B542F6D33B78322B9B
:10A7900009D0332B26D0312B14D00A20FEF7E4FD4C
:10A7A0000028FAD1F8BDA02303211E4ADB059950E9
:10A7B0001D4A9A5812032FD4A1228021D2000903E6
:10A7C0009950EAE7A023E9220321DB05D200995042
:10A7D000154A9A5852031AD4A1228021D200C902E4
:10A7E0009950DAE7A023EA220321DB05D200995031
:10A7F0000D4A9A58D20205D4A1228021D2004903E1
:10A800009950CAE78021094A49039950C5E7802138
:10A81000064AC9029950C0E78021044A09039950A9
:10A82000BBE7C0464C070000040500000C05000013
:10A8300010B50378002B00D010BD064B3B211888C3
:10A84000FFF77EFF0028F7D000220021FDF7B2FDC0
:10A85000F2E7C0466C20002010B5040001F06EF84D
:10A860002100244801F0CAF82388132B32D013D8D2
:10A87000102B26D0112B08D10020FFF739FC00281F
:10A880001AD101221C4B52421A80200000F0B4FE63
:10A890002000FFF7ABFE10BD522BF6D1164B002265
:10A8A000188800210023FFF753FF0028EDD0002275
:10A8B0000021FDF77FFDE8E700220021FDF77AFD8A
:10A8C000DFE70720FFF714FC00280DD1A2880A4B10
:10A8D0001A80DAE7084B0022188885210023FFF749
:10A8E00035FF0028D1D0E2E700220021FDF762FD0C
:10A8F000ECE7C046282500206C20002010B5072872
:10A9000004D00A2813D004280BD010BD00F014FF87
:10A91000082302009A43F8D000220021FDF74AFDE7
:10A92000F3E70F4B13211888FFF70AFFF0E7002029
:10A93000FFF7DEFB00280DD1FFF74CFE002804D105
:10A94000FFF70AFF0028E0D0E6E700220021FDF72C
:10A9500031FDF5E700220021FDF72CFDECE7C046B4
:10A960006C20002070B50378012B04D0022B02D09C
:10A97000002B06D070BD002200214068FDF71AFDB3
:10A98000F8E7114C114D20782818FEF7E5FC2278E5
:10A990000132D2B2AB18013B1B7822700A2B01D0D6
:10A9A000132AE7D992B22900094801F023F90823B4
:10A9B00002009A4302D100232370DBE7002200212A
:10A9C000FDF7F8FCF7E7C0462425002010250020FD
:10A9D0002825002010B5002806D0022803D1FFF753
:10A9E00087FB00280DD110BD0020FFF781FB002858
:10A9F0000CD1FFF7EFFD002810D1FFF7ADFE0028C6
:10AA0000F1D000220021FDF7D5FCECE70022002167
:10AA1000FDF7D0FCFFF7DEFD0028EED0002200217C
:10AA2000FDF7C8FCE9E7C04610B50A00010002487E
:10AA3000FDF7C0FC10BDC046EFBEADDEF0B5CE46A2
:10AA4000474680B5A7B003AE3200B04B03CB03C27C
:10AA50001B88052113800023052200930020AC4BA6
:10AA6000FEF760F8002800D00FE10EAC2200A94BE1
:10AA700023CB23C2002306AD2B80A74BA74A1A93F2
:10AA800080235B001B931C921D932000A44A009519
:10AA9000FD3B1AA9FEF706FB002800D031E1032098
:10AAA000A04AA149FFF7D8FC002800D024E10020EB
:10AAB0001AA9FFF7F9FD002800D018E10023482269
:10AAC00008209A4901F09EF9002800D00AE10822E6
:10AAD00000211AA8FDF76EFB68216B4601225B1866
:10AAE0001B7893436A46521810001370FFF732FE2A
:10AAF000002800D0F1E08E4801F0A8F9002800D02D
:10AB0000E6E011238B4F2370380001F05BFF390022
:10AB100082B22000FFF718FE002800D0D3E0082200
:10AB200000211AA8FDF746FB834B1AA81A93C823E5
:10AB30005B041B93FFF706FE002800D0BEE0002157
:10AB400004221AA8FDF736FB7C4B1AA91A937C4BFA
:10AB50001800984600F086FF002800D0A9E03022B7
:10AB600000212000FDF726FB02232370A023DB0039
:10AB70003022002163801AA8FDF71CFB78216A4669
:10AB80000123521813806F4B2022002128001F93AD
:10AB9000FDF710FB01232B724023EB6074332B6114
:10ABA00000232A0000932000674B1AA900F04CFCF8
:10ABB000002879D11C2200211AA8FDF7FBFAA02257
:10ABC00092021B92F0227420120369461C92032207
:10ABD00009180A7076216A460023521813806A46C3
:10ABE000023152181A931370584B1AA81F93584BDE
:10ABF000209300F067FE002851D13100554801F044
:10AC0000C7FE022000F0DAFC002843D1A024E8238C
:10AC10000022DB00E405E2504F4B504F9946A2263C
:10AC20008025F6006D02FFF799FD00281FD1A3597A
:10AC30002B42F8D1E9230322DB00E2508023E259C2
:10AC4000DB021A421ED1A122D200A350C820FEF777
:10AC5000CBFB8023E259DB021A4210D1A122D200A1
:10AC6000A35007224946404600F0C4FFD7E7002220
:10AC70000021FDF79FFBA3592B42D4D1DAE7384AD4
:10AC8000A350EEE7364AA350E0E700221100FDF79B
:10AC900091FBEAE600221100FDF78CFBB6E70022EB
:10ACA0001100FDF787FBA8E700221100FDF782FBEA
:10ACB00080E700221100FDF77DFB50E70022110024
:10ACC000FDF778FB3BE700221100FDF773FB26E759
:10ACD00000221100FDF76EFB13E700221100FDF7C3
:10ACE00069FB08E700221100FDF764FBEFE6002294
:10ACF0001100FDF75FFBE1E600221100FDF75AFBB2
:10AD0000D5E600221100FDF755FBC8E658DA010030
:10AD10003822002064DA0100442500204426002067
:10AD200065A90100FDA80100CD0C0000C824002089
:10AD300059A8010044DA010010003C006DA7010091
:10AD40002825002068200020D5A9010031A8010095
:10AD500061A7010054DA0100702000200405000002
:10AD60000C05000072DF704779DF70477DDF7047A8
:10AD700065DF7047F0B557464E464546DE46E0B5BE
:10AD800085B01F000F9B814698461B788A46019329
:10AD900003880092002B5DD000239B4602AB002568
:10ADA000DE1C04E04B461B8801359D4230DA5346D9
:10ADB0001B68A9009C460422614403A801F0DEFD43
:10ADC0000022310003A8FFF7D3FF041E2AD13378F5
:10ADD000BB42E7D15B46002B2CD043461A78D319EF
:10ADE0001F2B39DC0E9B31009C4603A86244FFF701
:10ADF000BFFF002832D1434632781B7801359B18BB
:10AE00004246137001239B464B461B889D42CEDB76
:10AE10005B46002B1ED043461B78019A0E99013BDE
:10AE20009B1A8B54200005B0F0BCBB46B246A94625
:10AE3000A046F0BD43461B78DA191D2A0CDC4146BA
:10AE40009A1C0A7001330E9A0099DBB2D154434622
:10AE50001A78C7E70024E5E70C24E3E70400E1E7FC
:10AE6000F0B54646D6464F460023C0B5137003786A
:10AE700005000E00140084B0002B00D0CCE08278D6
:10AE8000002A00D0F0E0EA78002A00D097E06B6852
:10AE9000002B12D022781C2A00D9C0E0002159567C
:10AEA000531C23700223B35423785A1C22700A22A5
:10AEB000F25423785A1C2270F1542B89002B00D0B5
:10AEC0008CE02B8A002B00D0B0E02B8B002B00D025
:10AED000EAE02B6A002B3FD021788A1D1F2A00D977
:10AEE0009DE01A88052A00D85BE1B248B24F1018DD
:10AEF00080B2B846B84200D853E15888052800D837
:10AF00004FE1AC4FBC4684446746BFB2474500D8CA
:10AF100047E1AA4FBA4204D0B84202D0824200D9D7
:10AF20003FE14A1C2270052272542278511C217084
:10AF30001221B15422781988B2181170090A51707F
:10AF400022780232D2B222705988B2181170090ADE
:10AF500051702378023323706F6A002F28D03B7919
:10AF60002078991C821CC9B252181F2A57DC421C37
:10AF700003332270335423785A1C2270FF22F25478
:10AF800023783A88F3181A70120A5A70207802301F
:10AF9000C0B22070BA88002A0AD0B968002900D14E
:10AFA000FFE0301801F0EAFCBB8822789B18237080
:10AFB0002C23EB5C002B00D0B4E0002030E05A1CC6
:10AFC00022700222F25423785A1C22700122F25479
:10AFD00023785A1C2270EA78F25458E70C232F0089
:10AFE00098460837A844022241463800019400964A
:10AFF0000A3BFFF7BFFE002812D11023062241466C
:10B00000380001940096FFF7B5FE002808D12B8A7E
:10B01000002B00D159E709E043781D2B5FD90C20A4
:10B0200004B0E0BCBA46B146A846F0BD14232F00D8
:10B0300098461037A84403224146380001940096F0
:10B04000123BFFF797FE0028EAD110230722414662
:10B05000380001940096FFF78DFE0028E0D12B8B7D
:10B06000002B00D135E71FE00E276F443800FFF7B3
:10B070007BFE0028D4D123785A1C22700322F2547C
:10B0800023785A1C22701922F25423783A88F31834
:10B090001A70120A5A7023780233DBB22370EA78EE
:10B0A000002A00D1F3E68AE71C232F0098461837C0
:10B0B000A844142241463800019400961A3BFFF739
:10B0C00059FE0028ACD110231522414638000194C6
:10B0D0000096FFF74FFE002800D1FAE6A0E70E2702
:10B0E0001D236F44881C39003B80FFF73FFE00287A
:10B0F00096D12B78022B56D06B7808215A1E1C2A29
:10B100004DD85A1C32707170227802329B18DBB213
:10B110002370AA78002A00D1B5E60C201B2B00D999
:10B120007EE7A3E7AF6A002F3BD000239846163393
:10B130009A4616339946207800E0AF6A43465B0092
:10B1400043449B00FF183B79421C03332270335465
:10B1500023785A1C22705246F25423783A88F31806
:10B160001A70120A5A7020780230C0B22070BA8861
:10B17000002A0AD0B968002913D0301801F0FEFB6C
:10B18000B8882378C018C0B2207043460133DBB2C0
:10B1900098464B46EB5C4345CFD8002040E73B78D0
:10B1A000AFE707203CE73B881D2BA5D80921DBB280
:10B1B000A7E7C0467FF3FFFF7DF30000FFFF00001D
:10B1C00030B593B000236A4604000D009371D3712B
:10B1D000002809D0C3785B071ED5063202A9FFF705
:10B1E0003FFE002816D102AC002D0BD0EB78002BCF
:10B1F00012D16B462800DA1D0AA9FFF731FE00289C
:10B2000008D10AAD6A466B46917920002A00DB79A5
:10B21000FFF7A8FD13B030BD0720FBE773DF7047D1
:10B2200074DF7047F0B57E4F07220021380087B0E9
:10B23000FCF7C0FF7B4C7C4D6378002B33D02B7820
:10B240007A4E012B00D188E0227A002A44D032685D
:10B25000217D002902D1032B00D1B0E0002A02D0C9
:10B26000023B012B2BD90022714B1A7018220021AE
:10B270006846FCF79FFF00236A46137013722A7812
:10B2800001930393022A2BD0032A53D0012A45D0DD
:10B29000002A39D13368002B3ED0664A107898478F
:10B2A000002007B0F0BD2B78604E012BCCD10223DB
:10B2B0002B70237A3268002B7BD0002AD3D02378DE
:10B2C000002BD0D05C4B1B78002BCCD10121584BEC
:10B2D000062019709047C9E73268022BB8D168E0A0
:10B2E000694623694B82E3680B8254490B79087BDA
:10B2F000034306D02378002B03D04F4B1B78002B41
:10B300007ED002224B4B1A706846FFF787FF002859
:10B31000C7D13368002BC0D10020C2E7694604932F
:10B32000444B684601970A701A70FFF777FF0028B0
:10B33000EFD0B6E76A46A3691382E36953823F4AB6
:10B340001379117B0B433FD103223A4B68461A70A5
:10B35000FFF764FF0028DCD0A3E73268002A4CD056
:10B36000374907200B7090472B78012B00D06BE7F3
:10B3700063783268002B17D07B78002B00D072E7FF
:10B38000BB78002B00D06EE7FB78002B00D06AE77B
:10B390003B79002B00D066E77B79002B00D062E779
:10B3A000BB79002B00D05EE702232B70237A002BA1
:10B3B00083D103232B70237D002B00D07DE7002356
:10B3C0001C4A2B7013704EE72378002BBCD01A4B0D
:10B3D0001B78002BB8D1694602331A480B7202332E
:10B3E00000210392C370FFF7EBFE002800D058E75E
:10B3F0000522104B1A702A784AE7114B1A70BBE7E6
:10B400006B4604240F48039100211A72C470FFF7A1
:10B41000D7FE002800D044E7064B2A781C7037E797
:10B42000D42700204827002045270020A0270020FF
:10B430002028002044270020212800201028002058
:10B44000D027002068270020F8B504000E0000284F
:10B4500000D193E0002A00D190E000204849087014
:10B4600048490B600699484B196048490B00A1CA2E
:10B47000A1C3A1CAA1C321CA21C3CB68002B00D09C
:10B4800077E000230B728B69002B00D06CE0002367
:10B490000B75072200213E48FCF78CFE3D4B3E4ACF
:10B4A0003E4D1A603E4A00219A6028003022FCF787
:10B4B00081FE237822002B70A3781032AB70E378E2
:10B4C000EB7063786B702B00103303CA03C32B003F
:10B4D000103A083303CA03C32B000832183303CAD7
:10B4E00003C3636A002B11D02E4B2F4F6B62616A2E
:10B4F0009F600A881A8088889880002806D00023D8
:10B500008A68D25CFA5401338342F9D3A36A002BD0
:10B5100014D0264B264FAB62A16A9F608888988022
:10B520000A881A80002806D000238A68D25CFA5460
:10B5300001338342F9D32C23E25CEA54236A002BC3
:10B5400006D01C4B2B62226A5188598012881A80BF
:10B550006368002B03D0184B6B6063686B6031002D
:10B560002800FFF72DFEF8BDCB69002B00D090E737
:10B570008DE70B69002B00D085E782E70E20F2E70C
:10B5800045270020A02700209C27002048270020D6
:10B59000D42700201028002024280020682700201D
:10B5A00044280020C4270020A4270020DC270020F6
:10B5B000E8270020082800200C28002010B50024CF
:10B5C0000B4B82B0187001A80194FEF765FB0828A8
:10B5D00009D0002805D1019B002B05D00122054B85
:10B5E0001A7002B010BD0194FFF71CFEF9E7C046C7
:10B5F000452700209827002030B5038883B0112B01
:10B6000005D0192B24D0102B1ED003B030BD002440
:10B610003F4B1C703F4B5A683F4B1A703F4B828820
:10B620001B889A42F1D101253D4B01A81D70019460
:10B63000FEF732FB082849D000284CD1019B002B93
:10B6400045D0384B1D70E0E78288344B1A80DCE728
:10B650008479002CD9D1324A1378022B2CD0032BB9
:10B6600040D0012BD1D12C480178002912D02E4B8B
:10B670005C78002C40D19C78002C3DD1DC78002CEB
:10B680003AD11C79002C37D15C79002C34D19B79CC
:10B69000002B31D10223002401A813700194FEF77E
:10B6A000FBFA082812D0002815D1019B002B0ED0E0
:10B6B00001221C4B1A70A8E71C4901A80B70032338
:10B6C00013700194FEF7E8FA0828ECD10194FFF713
:10B6D000A9FD002899D0164B1B68002B00D194E7D8
:10B6E000984792E7114B1C70124B1B68002B00D13E
:10B6F0008BE70020984788E7012500240139017075
:10B7000001A815700194FEF7C7FA082894D1DDE767
:10B710002128002048270020992700207820002099
:10B720004527002098270020D42700204427002008
:10B730009C270020A027002030B5184B83B01B7831
:10B74000002B03D0164C2378002B02D0002003B02E
:10B7500030BD144B1B78002B03D0FFF761FD002890
:10B76000F5D101252570002401A80194FEF794FA73
:10B77000082807D000280AD1019B002B03D00A4BD0
:10B780001D70E4E70194FFF74DFD0028DED0074B64
:10B790001B68002BDAD09847D8E7C046482700201E
:10B7A0002128002045270020982700209C270020E2
:10B7B00075DF704776DF70477ADF70477BDF704751
:10B7C00010B5184B82B01888174B984214D0174AFE
:10B7D000174C13780133DBB21370217B99420DD2E1
:10B7E00000231370237C002B12D16369002B03D03C
:10B7F000002201A80270984702B010BD0D49FFF762
:10B80000D7FF0028F8D0A369002BF5D09847F3E7BD
:10B810003B21FFF7CFFF0028E7D0A369002BE4D03E
:10B820009847E2E766280020FFFF000098280020E4
:10B83000682800209028002030B51C4B1C4A5B88EB
:10B84000118883B099420CD852889A4209D3194B77
:10B850005B69002B03D0012201A802709847164CA7
:10B860000BE0154C2378002B0BD0124B5B69002B9F
:10B8700003D0002201A8027098470023237003B070
:10B8800030BD0E4B0B4D1B78002B0CD0A9680C4B18
:10B8900000221868FDF7FEF90028EED0AB69002BF6
:10B8A000EBD09847E9E76968F1E7C04688280020AF
:10B8B0009028002068280020642800209828002074
:10B8C00084280020164902000B0070B532CA32C32A
:10B8D00032CA32C312681A600022124B01681A7011
:10B8E000002916D0104C0832200001F047F8200043
:10B8F000FFF762FF00280BD101220C4B52421A8045
:10B9000000220B4B00211A700A480B4AFDF79AF9E6
:10B9100070BD0548FFF752FF0028EDD0F8E7C0469C
:10B920006828002064280020902800206628002035
:10B930009828002084280020C1B7010010B5038892
:10B94000122B30D016D8102B35D0112B11D101224B
:10B95000214B52421A800022204B1A70204B18684B
:10B96000FDF722FA002804D01E4B9B69002B00D063
:10B97000984710BD502BFCD11A4CC288E3899A42DB
:10B98000F7D1C38B022BF4D11E33C35CDB070FD47A
:10B99000134B1868FDF708FA0028EAD0A369002BBA
:10B9A000E7D09847E5E7811D08220F4800F0E6FF41
:10B9B000FFF742FFDDE701008288074B0A481A8043
:10B9C0001631082200F0DAFF0022044B1A70054BF2
:10B9D000DB89002BCDD1EBE76628002098280020DA
:10B9E000842800206828002088280020A0DF7047D5
:10B9F000A2DF7047A6DF704763DF704710B50028ED
:10BA000008D0002906D00B88112B15D0502B05D05B
:10BA1000102B00D010BD8B888382FBE7CB88028A75
:10BA20009A420DD082889A42F4D18369002BF1D0DA
:10BA3000CA8B20319847EDE701235B428382E9E717
:10BA4000CA8B022AEED12123CA5C013BCB5C1202D5
:10BA500013430122110019401A4201D08275D9E71F
:10BA60008175D7E7F0B557464E464546DE46E0B508
:10BA700095B0040004A802005C4BE0CBE0C21B6858
:10BA80001360002C00D1AFE0002900D1ACE001230D
:10BA90005B42A3820B682100A3610023A375FFF71B
:10BAA000ABFF051E07D0280015B0F0BCBB46B24660
:10BAB000A946A046F0BD6A4623780120937201236F
:10BAC00098466B46424602A91A81A21CFFF78EFFD8
:10BAD000051EE8D1032200216846FCF76BFB444BAE
:10BAE000002199466B464A461A8006229B780DA88B
:10BAF0009343022213436A4693701C22FCF75AFBBD
:10BB000034216B4610225B181B7803AF13436A463F
:10BB1000521813706B461293237801AEBB70032347
:10BB20000322002130000E951095119513953B804E
:10BB3000FCF740FB4B461F223380B3789346934378
:10BB40000322924652460021134308A81422B370E0
:10BB5000FCF730FB43466A460A9313339385230070
:10BB60000DAD290060880C3308AA08970996FFF7E5
:10BB70003FFF051E97D11C2200210DA8FCF71AFBE0
:10BB800034216A46521813780C22934313436A46B1
:10BB90005218137023780322BB7002230021300057
:10BBA0000E9510951195129513953B80FCF702FBAD
:10BBB0004A4632805A46B37800219343524608A839
:10BBC00013431422B370FCF7F5FA424614230A9289
:10BBD0006A4693856088231D08AA0DA908970996CF
:10BBE000FFF706FF05005EE70E255CE770DA01004F
:10BBF0001111000070B586B06B4604000D009E1D4B
:10BC0000DA8000281FD0828A104B9A4219D0837D97
:10BC1000002B16D03388142B11D81022002102A833
:10BC2000FCF7C8FA6A46A38902A91381012393721B
:10BC3000A08A05950496FFF7DDFE06B070BD0720CB
:10BC4000FBE70820F9E70E20F7E7C046FFFF0000FA
:10BC50001C4B1B78012B00D070471B4B1B681B072C
:10BC6000FAD11A4AF0231268110019401A4201D081
:10BC7000102924D1164A12681A4210D0F022134B10
:10BC80001B681340402BE7D1114B1B681342E3D1D3
:10BC90008022C1230121D205DB00D150DCE70D4B0E
:10BCA0000D4A1A6080220D4B12021A60054B1B7858
:10BCB000012BD1D1044B1B681B07DFD0CCE7302907
:10BCC000D8D0DBE7E00F00F0E40F00F0E80F00F061
:10BCD000EC0F00F004050040DFFF07C0186C0040C7
:10BCE0002EDF704751DF704710DF704761DF70470C
:10BCF00010B508001100FEF797FE10BDF0B5D6464E
:10BD00004F464646C0B53B4B82B01E6899467542C9
:10BD10007541394BEDB29A461B68002B52D1002E6B
:10BD200005D102B0E0BCBA46B146A846F0BD334BDF
:10BD300001269846324F01AC3B88210023804346C0
:10BD40001D682800FFF7D2FF052830D0002826D133
:10BD50004B4628001B689847002E26D12000FFF78D
:10BD6000C1FF052821D000283ED100255346019867
:10BD70001B689847002D0DD02000FFF7B3FF012569
:10BD80000528CED00028F1D000220021FCF712FBBC
:10BD9000002DF1D1194B00269846194FCCE700220F
:10BDA0000021FCF707FB002ED8D00126C4E7002EA7
:10BDB000B7D12000FFF796FF0528B2D000280ED19A
:10BDC0000125D3E701AC2000FFF78CFF0528D9D16E
:10BDD000002EA6D0094B01269846094FACE7002259
:10BDE0000021FCF7E7FAC7E700220021FCF7E2FA9E
:10BDF0000026A1E79C280020A8280020AC280020CD
:10BE00009A28002010B5002914D08C0712D10A4CB2
:10BE100021600A490A800A4A0A491360FFF764FF51
:10BE2000002800D010BD0122074B16301A70FFF712
:10BE300057FFF7E70720F5E7AC2800209A280020F5
:10BE4000A0280020F1BC0100A4280020002803D075
:10BE5000024B1860002070470E20FCE79C28002051
:10BE600010B50A4B1B68002B08D09847002800D15A
:10BE700010BD00220021FCF79DFAF9E7044B1B7866
:10BE8000002BF5D0FFF73AFFF2E7C046A0280020CC
:10BE9000A4280020F8B5040042790668A320D30046
:10BEA0009B1A3F4D9B00EB18C000D9685A8A305846
:10BEB00088545A8A013292B25A825A8A1B8A9A420A
:10BEC00000D3F8BD80210326637920688900425899
:10BED000DFB2B243DE00F31A9B004250EB185A8ADD
:10BEE000198A01328A4219D0F21B9200AA18538A89
:10BEF000128A01339B1A5A1E9341802120688900BF
:10BF00004258F61B134343502023B600AD192A7D37
:10BF10002B7523689B1801221A60D2E75A79D1B297
:10BF2000002AE1D10532FF32DA822268D88A12185B
:10BF3000116062791B4992005258002A0BD0C2222C
:10BF4000216898699200885002229A612268996952
:10BF5000C1239B00D1506279D3009B1A9B00EB1840
:10BF60005B78114A9B009858104AD3580022002849
:10BF700004D112E00132083382420ED0197804292C
:10BF8000F8D161795878CA00521A9200AA185070F4
:10BF90005B68002B01D0200098470223ADE7C04624
:10BFA000B0280020CC280020C8DA01001CDB0100EA
:10BFB000427910B5D3009B1A114A9B00D3188222F4
:10BFC0005200DA820268D98A52180021116042793F
:10BFD0000C4992005258002A0BD0C22201689C6979
:10BFE00092008C5002229A6102689969C1239B00D9
:10BFF000D1500123026813620268536110BDC0462C
:10C00000B0280020CC2800204279D3009B1A034A94
:10C010009B00D3180122DA717047C046B028002077
:10C020008021F8B50325437904000068890042584F
:10C03000334EAA43DD00DFB2EB1A9B004250F318E7
:10C040005A8A198A01328A4219D0EA1B9200B21820
:10C05000538A128A01339B1A5A1E93418021206809
:10C0600089004258ED1B134343502023AD0075193E
:10C070002A7D2B7523689B1801221A60F8BD5A7916
:10C08000D1B2002AE1D10532FF32DA822268D88AA1
:10C090001218116062791B4992005258002A0BD085
:10C0A000C222216898699200885002229A6122680F
:10C0B0009969C1239B00D1506279D3009B1A9B00E0
:10C0C000F3185B78104A9B009858104AD358002206
:10C0D000002804D112E00132083382420ED01978D0
:10C0E0000429F8D161795878CA00521A9200B2181E
:10C0F00050705B68002B01D0200098470223ADE709
:10C10000B0280020CC280020C8DA01001CDB010088
:10C11000F8B542793C4DD3009B1A9B00EB1801689F
:10C12000DA685B8A0326D25C384B0400CA5080214F
:10C130004379006889004258DFB2B243DE00F31A47
:10C140009B004250EB185A8A198A01328A421AD04F
:10C15000F21B9200AA18538A128A01339B1A5A1EA4
:10C160009341802120688900425813434350F31BB8
:10C170009B00E139EB18FF391A7D197523689B186C
:10C1800001221A60F8BD5A79D1B2002AE0D10532F5
:10C19000FF32DA822268D88A1218116062791C494B
:10C1A00092005258002A0BD0C2222168986992004E
:10C1B000885002229A6122689969C1239B00D1505C
:10C1C0006279D3009B1A9B00EB185B78114A9B00A5
:10C1D0009858114AD3580022002804D112E00132A5
:10C1E000083382420ED019780429F8D16179587841
:10C1F000CA00521A9200AA1850705B68002B01D036
:10C20000200098470223ACE7B02800201C0500005E
:10C21000CC280020C8DA01001CDB0100F0B5C646BE
:10C22000B12100B542794C4DD3009B1A9B00EB180D
:10C23000040000681A7AC900D2B242508422002158
:10C2400052001975DA822268D88A12181160627950
:10C25000424992008A588846002A0BD0C2222068A0
:10C260009E699200865004229A6122689869C123CF
:10C270009B00D050802003216379266880003258CB
:10C28000DFB28A433250DE00F31A9B00EB185A8A61
:10C29000188A013282421CD0F21B9200AA18538ADB
:10C2A000128A01339B1A5A1E93418021206889000B
:10C2B000425813434350F31B9B00E139EB18FF39FD
:10C2C0001A7D197523689B1801221A6080BCB84634
:10C2D000F0BD5A79D0B2002ADED10532FF32DA82BF
:10C2E0002268D98A8C464146624410606279920085
:10C2F0008A58002A0BD0C22221689869920088507F
:10C3000002229A6122689969C1239B00D150627907
:10C31000D3009B1A9B00EB185B78114A9B0098583E
:10C32000104AD3580022002804D112E00132083309
:10C3300082420ED019780429F8D161795878CA0060
:10C34000521A9200AA1850705B68002B01D020008E
:10C3500098470223A9E7C046B0280020CC28002037
:10C36000C8DA01001CDB0100F0B5C646B12100B5FA
:10C370004279514DD3009B1A9B00EB1804000068D2
:10C380001A7AC900D2B2425008221A751532FF3209
:10C39000DA822268D98A5218002111606179474AED
:10C3A00089005158904600290BD0C22120689E690F
:10C3B000890046508021996121689869C1239B00BA
:10C3C000C85061792068CB005B1A9B00EB18D968D4
:10C3D0005B8A0322C95C3A4BC1508020637926688E
:10C3E00080003158DFB291433150DE00F31A9B00D8
:10C3F000EB18598A188A013181421BD0F21B920036
:10C40000AA18538A128A01339B1A5A1E934180211B
:10C41000206889004258F61B134343502023B6007E
:10C42000AD192A7D2B7523689B1801221A6080BCE8
:10C43000B846F0BD5979C8B20029DFD10531FF31C6
:10C44000D9822168DA8A944642466144086061795B
:10C4500089005258002A0BD0C222216898699200A4
:10C46000885002229A6122689969C1239B00D150A9
:10C470006279D3009B1A9B00EB185B78114A9B00F2
:10C480009858114AD3580022002804D112E00132F2
:10C49000083382420ED019780429F8D1617958788E
:10C4A000CA00521A9200AA1850705B68002B01D083
:10C4B000200098470223AAE7B0280020CC280020BB
:10C4C0001C050000C8DA01001CDB0100F8B5427948
:10C4D000434DD3009B1A9B00EB185A8A040001328B
:10C4E00092B25A825A8A1B8A9A4200D3F8BD427984
:10C4F0000168D3009B1A9B00EB18DA685B8A03265D
:10C50000D25C384BCA508021437900688900425878
:10C51000DFB2B243DE00F31A9B004250EB185A8A96
:10C52000198A01328A4219D0F21B9200AA18538A42
:10C53000128A01339B1A5A1E934180212068890078
:10C540004258F61B134343502023B600AD192A7DF1
:10C550002B7523689B1801221A60C7E75A79D1B25C
:10C56000002AE1D10532FF32DA822268D88A121815
:10C57000116062791C4992005258002A0BD0C222E5
:10C58000216898699200885002229A61226899690C
:10C59000C1239B00D1506279D3009B1A9B00EB18FA
:10C5A0005B78124A9B009858114AD3580022002801
:10C5B00004D112E00132083382420ED019780429E6
:10C5C000F8D161795878CA00521A9200AA185070AE
:10C5D0005B68002B01D0200098470223ADE7C046DE
:10C5E000B02800201C050000CC280020C8DA01007B
:10C5F0001CDB010092203A4B70B59C46394C400040
:10C600001D58E28A84B06244116800221A5008382A
:10C610001A5014381A5004381A50294343D00521AF
:10C62000002D42D0304B314D18684279D3009B1A0F
:10C630009B00E3185A782E4B92005559D358002D81
:10C6400013D0002203E001320833AA420DD01E7835
:10C650008E42F8D141795D78CA00521A9200A21830
:10C6600055705B68002B00D09847E379DAB2002B55
:10C6700020D000236A46A37102331370E268184881
:10C680000192628A1B4902924258134042505A1E3C
:10C69000934101225B4293436A4604331373164B62
:10C6A00068461B68984704B070BD21794B425941D8
:10C6B0000231B7E7618A238A9942F4D3A27100213B
:10C6C00010226846FBF776FD6A46237968461370A8
:10C6D000E3680193638A0293074B1B689847E2E77C
:10C6E00000400040B0280020D0280020C8DA010017
:10C6F0001CDB0100C4040000CC280020F0B5C646B5
:10C70000104B0025984600B50F4C104F104E114BA2
:10C71000E018236880B2002B0DD0C12342469B0055
:10C72000D25880235B02AB401A4204D00023396800
:10C7300023603368984701350434042DE7D180BC69
:10C74000B846F0BD0080004040810040E028002055
:10C75000D42800200080FFFFF0B5C646114B00250D
:10C76000984600B5104C114F114EE023DB01E01844
:10C77000236880B2002B0DD0C12342469B00D258C3
:10C7800080235B02AB401A4204D000237968236007
:10C790007368984701350434042DE6D180BCB8464F
:10C7A000F0BDC0460090004040910040E0280020CD
:10C7B000D4280020F0B5C646114B0025984600B598
:10C7C000104C114F114EC023DB01E018236880B2DA
:10C7D000002B0DD0C12342469B00D25880235B0220
:10C7E000AB401A4204D00023B9682360B36898476D
:10C7F00001350434042DE6D180BCB846F0BDC046F6
:10C8000000A0004040A10040E0280020D4280020E3
:10C8100003210A4802680A430260094802680A4381
:10C8200002600849084A094B9B1A03DD043BC858BB
:10C83000D050FBDC064880470648004724050040EE
:10C8400054050040CCDB0100002000207C200020AB
:10C8500051BC0100CD800100FEE7FEE7FEE7FEE7E8
:10C86000FEE7FEE7002243088B4274D303098B42A4
:10C870005FD3030A8B4244D3030B8B4228D3030CB0
:10C880008B420DD3FF22090212BA030C8B4202D352
:10C890001212090265D0030B8B4219D300E0090A7A
:10C8A000C30B8B4201D3CB03C01A5241830B8B4283
:10C8B00001D38B03C01A5241430B8B4201D34B036C
:10C8C000C01A5241030B8B4201D30B03C01A5241D1
:10C8D000C30A8B4201D3CB02C01A5241830A8B4256
:10C8E00001D38B02C01A5241430A8B4201D34B023F
:10C8F000C01A5241030A8B4201D30B02C01A5241A3
:10C90000CDD2C3098B4201D3CB01C01A5241830956
:10C910008B4201D38B01C01A524143098B4201D390
:10C920004B01C01A524103098B4201D30B01C01ABB
:10C930005241C3088B4201D3CB00C01A5241830835
:10C940008B4201D38B00C01A524143088B4201D362
:10C950004B00C01A5241411A00D2014652411046C2
:10C960007047FFE701B5002000F006F802BDC046A1
:10C970000029F7D076E770477047C046002310B50E
:10C980009A4200D110BDCC5CC4540133F8E70000DA
:10C990000FB40B4B13B51C68002C05D0A369002BFA
:10C9A00002D1200000F078F805AB2000049AA168BD
:10C9B000019300F09BF916BC08BC04B01847C046B0
:10C9C000002000200023C25C0133002AFBD1581E46
:10C9D00070470000002310B50400036043608360CB
:10C9E000818143661900C28103614361836108222A
:10C9F0005C30FBF7DFFB054B6362054B2462A362EF
:10CA0000044BE362044B236310BDC04689D201008E
:10CA1000B1D20100E9D2010015D3010010B50249DD
:10CA200000F0BAF810BDC04621D6010070B56825E7
:10CA30004A1E55430E002900743100F0D1F8041E3F
:10CA400008D000212A00016046600C30A0606832E6
:10CA5000FBF7B0FB200070BD10B5024800F0BDF838
:10CA600010BDC0460029002010B5024800F0B6F8FD
:10CA700010BDC0460029002010B5024800F0ADF8F6
:10CA800010BDC046FB28002010B5024800F0A6F8F3
:10CA900010BDC046FB28002013B50400FFF7ECFFD3
:10CAA000A369002B02D0FFF7EFFF13BDA364E3647B
:10CAB0002365134B134A1B68A2620193A34201D161
:10CAC0000123A361200000F01FF86060200000F047
:10CAD0001BF8A060200000F017F800220421E0609D
:10CAE0006068FFF777FF01220921A068FFF772FF56
:10CAF00002221221E068FFF76DFF0123A361D2E754
:10CB000068D901001DCA0100F8B50700FFF7A4FFAE
:10CB10001F4B1E68B369002B02D13000FFF7BCFF2A
:10CB20004836B4687368013B04D53368002B22D0C3
:10CB30003668F6E70C22A55E002D1AD12000154BB1
:10CB40005830E360656600F047F8FFF78DFF20007E
:10CB5000082229002560A560656025616561A561E1
:10CB60005C30FBF727FB6563A563A564E5642000E3
:10CB7000F8BD6834D7E704213800FFF757FF041EDB
:10CB80003060D5D1FFF770FF0C233B60EFE7C04664
:10CB900068D901000100FFFFF7B504000600002777
:10CBA000019148346368A5680093009B013B0093A2
:10CBB00004D52468002CF5D13800FEBDAB89012BCB
:10CBC00008D90E22AB5E013304D029003000019B4E
:10CBD000984707436835E8E770477047704700009B
:10CBE000F8B50323CD1C9D43083506000C2D1FD23C
:10CBF0000C25A9421ED8300000F0DEFD25490A6848
:10CC00001400002C1AD1244F3B68002B04D12100C2
:10CC1000300000F027FB38602900300000F022FBD4
:10CC2000431C2BD10C233000336000F0CDFD03E01A
:10CC3000002DDEDA0C2333600020F8BD23685B1B77
:10CC400019D40B2B03D92360E418256003E0636833
:10CC5000A2420ED10B60300000F0B6FD200007228A
:10CC60000B30231D9043C21A9842E6D01B1AA350E2
:10CC7000E3E75360EFE722006468C2E70323C41CC4
:10CC80009C43A042E1D0211A300000F0EBFA431C93
:10CC9000DBD1C7E7EC280020F0280020936810B50E
:10CCA000013B9360002B04DA9469A34207DB0A2955
:10CCB00005D01368581C10601970080010BD00F0F2
:10CCC0002FFB0100F9E7F8B506000F001400D51896
:10CCD000AC4201D1002007E021783A003000FFF794
:10CCE000DDFF0134431CF3D1F8BD0000F0B5A1B065
:10CCF00006000C001F000392002804D08369002B5B
:10CD000001D1FFF7C9FE8E4B9C421CD17468636E43
:10CD1000DB0705D4A3899B0502D4A06DFFF75DFF57
:10CD2000A3891B0702D52369002B1DD121003000E8
:10CD300000F060FB002817D0636EDB070DD50120E3
:10CD4000404221B0F0BD7F4B9C4201D1B468DEE788
:10CD50007D4B9C42DBD1F468D9E7A3899B05EED4D7
:10CD6000A06DFFF73BFFEAE7002308AD6B612033BE
:10CD70006B761033AB760797039F3B78002B01D07F
:10CD8000252B4ED1039BFB1A0593039B9F420DD08D
:10CD9000059B21003000039AFFF795FF431C00D14B
:10CDA000B5E06A69059B944663446B613B78002B50
:10CDB00000D1ACE001227B1C0393002352426A6045
:10CDC00004A9543252182B60EB60AB601370AB6552
:10CDD000039B052219785D4800F0E2FC039B5F1C71
:10CDE000002820D12A68D30604D5532304A95B1850
:10CDF00020211970130704D5532304A95B182B2194
:10CE00001970039B1B782A2B16D00021EB68039F17
:10CE10003A78781C303A8446092A4FD9002911D132
:10CE200017E00137A9E7494B2A68C01A012383405C
:10CE300013432B600397CBE7079B191D1B680791D2
:10CE4000002B01DB0B9304E05B42EB6002231343F6
:10CE50002B603B782E2B0AD17B782A2B37D1079B6E
:10CE600002371A1D1B680792002B2DDB0993032242
:10CE70003978374800F094FC002807D0344B2A68F2
:10CE8000C01A40238340134301372B6039787B1C41
:10CE9000062230480393297600F082FC002845D012
:10CEA0002D4B002B27D10722079B073393430833D1
:10CEB00007936B69049A9B186B615DE70A214B43EA
:10CEC00067469B180939A3E701235B42CEE700239D
:10CED0001A0001376B603978781C3039844609298B
:10CEE00003D9002BC3D00992C1E70A235A436746EE
:10CEF0005218093BEFE707AB0093220029003000EE
:10CF0000164B00E000BF0490049B0133D1D1636E47
:10CF1000DB0705D4A3899B0502D4A06DFFF75EFE55
:10CF2000A3895B0600D50AE70D980AE707AB0093D3
:10CF3000220029003000094B00F082F8E3E7C046E8
:10CF400050DB010070DB010030DB010090DB0100F1
:10CF500096DB01009ADB010000000000C7CC010055
:10CF6000F7B5150001938A680B690C000090934295
:10CF700000DA130022002B6043321278002A01D01D
:10CF800001332B6023689B0602D52B6802332B608C
:10CF90002268062317001F401A4227D0230043337C
:10CFA0001B785A1E93412268920630D422000199C0
:10CFB0000098089E4332B047431C25D006232068C2
:10CFC0002A68E16800250340042B03D18D1AEB4346
:10CFD000DB171D40A3682269934201DD9B1AED18FF
:10CFE0000027BD4220D1002010E00137E3682A6805
:10CFF0009B1ABB42D2DD2200012301990098089EB2
:10D000001932B047431CF0D101204042FEBD302010
:10D01000E1184331087021005A1C45310978A218E3
:10D02000433202331170C1E72200012301990098B5
:10D03000089E1A32B047431CE6D00137D1E7000002
:10D04000F0B58BB006920A00433207930590049224
:10D050000A7E0C00109B782A06D8622A08D8002A7B
:10D0600000D1C0E0582A52D026004236327022E069
:10D07000100063381528F7D800F030FC16001F00A8
:10D08000F6FFF6FFF6FFF6FF1F00F6FFF6FFF6FFCE
:10D09000F6FFA80036009A00F6FFF6FFB900F6FF8B
:10D0A0003600F6FFF6FF9E0026001A684236111D74
:10D0B0001960136833700123A7E0086819680A1D16
:10D0C00005060BD50D681A60002D03DA2D23049A8E
:10D0D0006D421370614B0A27039332E00D681A60AA
:10D0E0004106F1D52DB2EFE70D681968081D1860EB
:10D0F0002E0601D50D6803E06D06FBD50D68ADB2B7
:10D10000564B0A2703936F2A17D1082715E045319C
:10D110000A70524A03921A68216820CA1A600806E7
:10D1200050D5CB0702D52023194321601027002DAD
:10D1300003D1202322689A43226023000022433334
:10D140001A706368A360002B03DB042221689143FB
:10D150002160002D02D1049E002B0CD0049E2800DB
:10D160003900FFF705FC039B013E5B5C33702B002D
:10D1700005009F42F3D9082F09D12368DB0706D5A4
:10D1800063682269934202DC3023013E3370049BC2
:10D190009B1B2361079B210000930598069B09AA0E
:10D1A000FFF7DEFE431C35D1012040420BB0F0BD3D
:10D1B000202209680A43226022007821453211703A
:10D1C000274AA7E74806ACD5ADB2AAE71A680D68AA
:10D1D000101D4969186013682E0601D5196002E018
:10D1E0006D06FBD519800023049E2361D2E71A68DF
:10D1F000111D1960166800213000626800F0D0FA35
:10D20000002801D0801B6060636823610023049ABA
:10D210001370BFE72369320006990598079DA84758
:10D22000431CC1D023689B0715D4099BE068984232
:10D23000BCDA1800BAE72200012306990598079E78
:10D240001932B047431CAFD00135E368099A9B1AE5
:10D25000AB42F0DCE9E70025F7E7C046A1DB0100BF
:10D26000B2DB0100002370B5064D040008002B60FE
:10D2700000F05EFB431C03D12B68002B00D0236021
:10D2800070BDC0460429002070B50C000E25495F12
:10D2900000F0ECFA002803DB636D1B18636570BDBA
:10D2A000A389024A1340A381F9E7C046FFEFFFFFBD
:10D2B000F8B51F008B8905000C001600DB0505D5AD
:10D2C0000E23C95E0022022300F0EAF9A389054A71
:10D2D00028001340A38132000E23E15E3B0000F0E2
:10D2E00075F8F8BDFFEFFFFF70B50C000E25495F24
:10D2F00000F0D6F9A389421C03D1054A1340A3814B
:10D3000070BD802252011343A3816065F8E7C046D7
:10D31000FFEFFFFF10B50E23C95E00F0E3F810BD6C
:10D32000F8B505000E001400002804D08369002B16
:10D3300001D1FFF7B1FB224B9C422ED16C68A3694F
:10D34000A360A3891B0732D52369002B2FD0236844
:10D350002269F7B2981A6369F6B2834205DC2100AC
:10D36000280000F05DF9002827D1A3680130013BB7
:10D37000A36023685A1C22601F706369834204D033
:10D38000A389DB0707D50A2E05D12100280000F06C
:10D3900047F9002811D13000F8BD0A4B9C4201D159
:10D3A000AC68CCE7084B9C42C9D1EC68C7E72100C8
:10D3B000280000F01FF80028C9D001267642EAE7CD
:10D3C00050DB010070DB010030DB010070B50400B0
:10D3D000080011001A000023054D2B60FBF758FDD3
:10D3E000431C03D12B68002B00D0236070BDC046C6
:10D3F00004290020374B70B51D6806000C00002D75
:10D4000005D0AB69002B02D12800FFF745FB324B5A
:10D410009C420FD16C680C23E25E93B211072DD4AD
:10D42000D90611D409230120336037331343A38174
:10D43000404270BD294B9C4201D1AC68EBE7284BC0
:10D440009C42E8D1EC68E6E75B0713D5616B0029E5
:10D4500008D023004433994202D0300000F0BCF9D8
:10D46000002363632422A3899343A3810023636081
:10D47000236923600823A2891343A3812369002B16
:10D480000BD1A0218022A389890092000B409342F6
:10D4900003D02100300000F03FF90C22A35E0120F0
:10D4A0001A0099B2024003420FD00022A2606269C2
:10D4B0005242A261002022698242BAD10A06B8D53E
:10D4C00040221343A3810138B3E7880700D462697F
:10D4D000A260EFE70020002050DB010070DB0100BC
:10D4E00030DB0100002370B5064D040008002B60FE
:10D4F00000F0FEF9431C03D12B68002B00D0236001
:10D5000070BDC04604290020F7B58B8905000C00CA
:10D510001A075FD44A68002A04DC0A6C002A01DC7E
:10D520000020FEBDE76A002FFAD0002280212E687D
:10D530002A601A0049010A400B4234D0606DA38969
:10D540005B0706D56368C01A636B002B01D0236CA0
:10D55000C01A0200216A00232800E76AB847A1899F
:10D56000431C06D12B681D2B31D82C4ADA40D30737
:10D570002DD50023636023692360CB0405D5431CAC
:10D5800002D12B68002B00D16065616B2E600029F1
:10D59000C6D023004433994202D0280000F01CF981
:10D5A00000206063BDE701232800216AB847431CBF
:10D5B000C5D12B68002BC2D01D2B01D0162B01D159
:10D5C0002E60ADE74023A2891343A381A9E740233E
:10D5D0000B43FAE70F69002FA2D00A680F60D21B35
:10D5E000019200229B0700D14A69A260019B002B97
:10D5F00000DC95E73A002800019B216AA66AB04743
:10D60000002806DC40230120A28940421343A38165
:10D6100087E7019B3F181B1A0193E7E701004020B1
:10D620000B6970B505000C00002B02D10025280005
:10D6300070BD002804D08369002B01D1FFF72CFABC
:10D64000144B9C421BD16C680C22A35E002BEDD0C6
:10D65000626ED20704D49B0502D4A06DFFF7BDFA19
:10D6600028002100FFF750FF636E0500DB07DED4C2
:10D67000A3899B05DBD4A06DFFF7B0FAD7E7064B73
:10D680009C4201D1AC68DFE7044B9C42DCD1EC68E2
:10D69000DAE7C04650DB010070DB010030DB01003F
:10D6A00070B50400080011001A000023054D2B601E
:10D6B00000F036F9431C03D12B68002B00D0236007
:10D6C00070BDC0460429002070B50E001D000E2359
:10D6D000C95E140096B0002907DA00232B60B389D5
:10D6E0001B0611D48023DB000FE06A4600F0D2F85D
:10D6F0000028F2DBF02301991B021940054BC918E1
:10D700004B4259412960EDE740230020236016B0C9
:10D7100070BDC04600E0FFFFF7B502268B8905000B
:10D720000C00334206D023004733236023610123DA
:10D730006361F7BD6A4601ABFFF7C6FF00990700BA
:10D740002800FFF74DFA002808D10C22A35E9A05A5
:10D75000EFD4032293431E43A681E4E70F4BAB6251
:10D760008023A28920601343A381009B2061636111
:10D77000019B002B0DD028000E23E15E00F09CF8E9
:10D78000002806D00322A38993431A0001231343E0
:10D79000A381A0890743A781CBE7C0461DCA01002A
:10D7A000C9B28218904201D10020704703788B42A1
:10D7B000FBD00130F6E7000010B50248FFF70DFA84
:10D7C00010BDC046FC28002010B50248FFF706FA3D
:10D7D00010BDC046FC28002070B50500002910D0FF
:10D7E0000C1F2368002B00DAE4182800FFF7E4FF81
:10D7F0001D4A1368002B05D1636014602800FFF7F1
:10D80000E3FF70BDA34208D9216860188342F3D1B9
:10D8100018685B6841182160EEE71A005B68002B0E
:10D8200001D0A342F9D911685018A0420BD1206849
:10D830000918501811608342E0D118685B684118DC
:10D8400011605360DAE7A04202D90C232B60D5E7C0
:10D8500021686018834203D118685B684118216011
:10D8600063605460CAE7C046EC28002070B504002D
:10D87000080011001A000023054D2B60FBF716FB72
:10D88000431C03D12B68002B00D0236070BDC04621
:10D8900004290020002370B5064D04000800110083
:10D8A0002B6000F02DF8431C03D12B68002B00D017
:10D8B000236070BD04290020002370B5064D0400CC
:10D8C00008002B6000F024F8431C03D12B68002BC8
:10D8D00000D0236070BDC0460429002003B4714607
:10D8E000490840004900095E49008E4403BC704766
:10D8F00058220120014B40421A6070470429002041
:10D9000058220120014B40421A6070470429002030
:10D910005822024B00201A607047C046042900209C
:10D9200058220120014B40421A6070470429002010
:10D93000054A03001168002901D1044911601068EB
:10D94000C31813607047C046F4280020082900203F
:10D95000F8B5C046F8BC08BC9E467047F8B5C0464E
:10D96000F8BC08BC9E46704704200020E89F0100D8
:10D97000729E0100729E0100BE9E0100FE9E01008B
:10D980002E9F0100BC9F01006A9F0100169E0100AE
:10D99000429E0100169E0100429E01000C9E010065
:10D9A000C49D0100C49D0100C49D0100C49D0100EF
:10D9B000C49D0100FE9F010014A001009E9F010074
:10D9C000849F01000C9E01000C9E010040A30100F9
:10D9D000CAA20100CAA2010096A2010050A2010041
:10D9E0000CA20100D8A101006EA1010042A101001A
:10D9F00012A1010042A1010012A10100BAA301007D
:10DA000076A3010076A3010076A3010076A30100AE
:10DA100076A30100D0A301001AA3010090A1010088
:10DA2000B6A101005CA301005CA30100100003008B
:10DA3000E99C010011000300E99C010010000000B6
:10DA4000110000004E6F726469635F554152545F6C
:10DA5000544200002573000053746172742E2E2E00
:10DA60000A0000000B09080A0100000000509D0098
:10DA70009ECADC240EE5A9E093F3A3B50000406E36
:10DA80000300000009C001000200000009C00100FD
:10DA90000500000009C001000001000069C3010089
:10DAA000010200001DC201000102000021C00100AE
:10DAB0000302000095BE0100040300000000000006
:10DAC00005040000B1BF01000200000005000000D5
:10DAD0000400000003000000030000000300000039
