:020000021000EC
:108000000040002071C00100B9C00100BBC00100E8
:108010000000000000000000000000000000000060
:10802000000000000000000000000000BDC00100D2
:108030000000000000000000BFC00100C1C001003E
:10804000C3C00100C3C00100E58E0100C3C0010030
:10805000C3C001000000000081970100C3C00100FF
:10806000C3C00100C3C00100C3C00100C3C0010000
:10807000C3C00100C3C00100C3C00100C3C00100F0
:10808000C3C0010099840100C3C00100C3C0010046
:108090007D850100C3C001003DC00100C3C00100D7
:1080A000C3C00100C3C001000000000000000000C8
:1080B00000000000000000000000000000000000C0
:1080C000164B002B00D1144B9D46402292029A1A67
:1080D000924600218B460F461348144A121A00F0AC
:1080E00065F80F4B002B00D098470E4B002B00D0AB
:1080F00098470020002104000D000D48002802D000
:108100000C4800E000BF00F02DF82000290002F02C
:10811000D5FB00F011F8C046000008000040002028
:10812000000000000000000070200020B4280020A3
:108130000000000000000000084B10B50400002BF8
:1081400002D0002100E000BF054B1868836A002BB5
:1081500000D09847200000F031F8C0460000000031
:10816000A4D0010070B500260C4D0D4C641BA4106A
:10817000A64209D1002604F089FF0A4D0A4C641B6F
:10818000A410A64205D170BDB300EB589847013644
:10819000EEE7B300EB5898470136F2E77020002075
:1081A0007020002070200020702000200300121892
:1081B000934200D1704719700133F9E7FEE7C046DA
:1081C000F0B54F46D6464646C0B5214B197899467C
:1081D00000292AD01F4B002498461F4B1F4F012611
:1081E0009A4603E00134E4B28C421ED243461B6837
:1081F00032009C46E500654428783B6882401A427C
:10820000F0D093433B6001F0B1FA32002B78514635
:108210009A4009680A40010099408A420AD04B46B8
:1082200001341978E4B28C42E0D31CBC90469946E4
:10823000A246F0BD697801394A425141091A4842C3
:1082400041416A68C9B2002AE9D018009047E6E7C0
:1082500070200020842000207C200020802000202E
:10826000F8B5124D0700286800F04EFD002807D130
:108270000124BC400E4E33681C4202D0A34333603D
:10828000F8BD380001F072FA0A4A136800280BD0D2
:1082900023431360336828681C43074B0022196886
:1082A000346000F0A1FCEBE7A343F2E77820002064
:1082B000802000207C20002074200020F0B547465C
:1082C000CE4680B50D00070083B014000720042AB5
:1082D0002CD901F0ADF8002833D01C4B1C4A1F608C
:1082E0001C4B1D701C4B1C60002313601B4A6C1E32
:1082F0001360E4B2002D1ED0194BE400994603230D
:108300003C1901AD083F9846002602E0083CBC42FB
:1083100011D043462B70A37820784A462900AE70CE
:10832000EE706B7001F0F0F80028EFD003B00CBCD9
:1083300090469946F0BD0B4A00210B4800F020FC06
:10834000F4E701F045F80028C7D0EFE784200020CB
:108350007C2000207020002074200020802000203D
:1083600061820100C18101007820002070B5094DB3
:108370002B78002B0BD00024074E3268E300985C6A
:10838000012101F099F92B780134A342F5D800209E
:1083900070BDC0467020002084200020BFF34F8FA6
:1083A000024B034ADA60BFF34F8FFEE700ED00E0B7
:1083B0000400FA0500290CD0002A08D0531E1A40E8
:1083C00005D1826001608380C2600020704709206F
:1083D000FCE70E20FAE7C04610B584688288C368BF
:1083E0001B1B9A4208D3C36813400268D154C36868
:1083F0000133C360002010BD0420FCE78268C3681D
:108400009A420AD08368828813400268D35C0B705A
:10841000836801338360002070470520FCE7C04675
:1084200080218023184A8902D1508022D221174B03
:10843000520289005A5040395A5001222F205A6066
:108440000138C046C046C046C046C046C046C046C9
:10845000C046C046C046C046C046F1D19A6000231F
:108460000B4A2F2013600138C046C046C046C046A4
:10847000C046C046C046C046C046C046C046C046CC
:10848000F1D1044A1370704700E100E00010014090
:108490009C2000208E200020A021F0B50022C6469E
:1084A0002C4B490000B55A5004315A5004315A50EF
:1084B00004315A504C395A5004315A50264A1768E0
:1084C0007A1C36D0254A00259C58254B254E1B6822
:1084D000E41A254B2402240A984605E01000984728
:1084E000002829D17B1C15D03268FB009446DB198B
:1084F0009B0063445A68A2420CD8A41AAD181F6AA4
:108500009A69D96943461B68002BE7D10800904758
:108510007B1CE9D11549164A0B7812789A4210D083
:10852000144A9B009D5080218023134A5B0049031D
:10853000D15004BC9046F0BD00220021FFF72EFF71
:10854000D0E70132D3B2022B01D00B70E8E7002351
:108550000B70E5E700100140A0200020040500009A
:108560009C200020A82000208820002099200020A6
:10857000982000209020002000E100E0F0B5574650
:10858000DE464E464546E0B5CD4BCE4A9A46CE49EC
:108590001B688FB0049309781378994200D164E185
:1085A0000133DBB2022B00D15DE11370C74A9B009F
:1085B0009A58049B94460992524663441B021B0A34
:1085C0000B93136001230893C14B1A68C14B0792A8
:1085D0001978C14B89461B6803910693BF4B1E68EF
:1085E000BF4B1B780C93130000220D920A92059248
:1085F0004A46013AD2B29146FF2A69D04A46D00093
:10860000069A94466044027841788A42F0D0540039
:10861000A4184568E4002D1901328478D2B2A41A56
:10862000671EBC41644222402C78022C12D0032CDD
:10863000EBD15C1CE9D01900CB005B1800219B003A
:10864000F3181975196A4B1CF6D101240B004178F7
:108650000594DAE76C68A046E4004444A4003419A9
:108660000194247DA346002CCFD0591C16D0D900EC
:10867000C918890071180291984500D1FBE01C00CF
:1086800045469C4602E09D420DD01C00E1000919C0
:10869000890071180B6A5F1CF5D1634600240199AB
:1086A0000C754178B1E76346A54200D1C8E0019C52
:1086B000A44664466568246A0C62611CEED0E10041
:1086C0000919890071184C68A44665444D60E5E7B6
:1086D000059A002A00D0D1E00A9B002B02D0534615
:1086E0000B9A1A600D9B002B02D07D4B0C9A1A70CE
:1086F000089B002B00D064E101277F42784B1B7858
:10870000049353461B689A46079B9C46002302939A
:108710009946039B013BDBB20393FF2B00D1EEE0B4
:10872000069A64469346DB009B447B1C44D0FA00C7
:10873000D2199200B218BC469168D068176A5346A5
:10874000684DCB1A1B021B0AAB4270D81B18536032
:108750004B469360D3600123137501235B42136280
:10876000631C00D19CE0E3001B199B00F3185068C8
:108770005D68A84200D88CE0904621002A0007E0FE
:10878000CB005B189B00F3185A68824200D38EE03E
:108790000D00196A801A4B1CF2D142460B00A84604
:1087A000019113624346DD0063464544AD007519EF
:1087B00050602B627B1CBAD15B465D4619785878B5
:1087C0000194884200D191E06A684B0094465B189E
:1087D000AA780131DB00C9B2634429708A4202D110
:1087E0004A4600212A701A78012AEAD15A6894462A
:1087F000D20062449200B218147DA046002CE0D151
:108800009968AB469160D868019CD0601D6915617C
:108810005B69D361049B002B91D043460021936098
:108820005346304DCB1A1B021B0AAB428ED953461E
:10883000591A0902090A814236D2411A516087E762
:10884000019B9C46029B5C461B6A05945C1C00D005
:108850002FE70125244CA560059C0D940C940A94E7
:1088600000240B9425E700239FE6049B0B93002331
:1088700009930893A8E60B008C46E4E7144A1360BA
:10888000079A0793D21A11004A1E9141CAB2059263
:1088900022E7281A5860012314620293644644E7D1
:1088A00001236446029340E74B46536050E7019131
:1088B000290015002D1A42465D608846019B70E72D
:1088C0009C2000209820002099200020902000204B
:1088D000A0200020A4200020AC200020A820002000
:1088E0008D200020FEFF7F0000100140019B9C4670
:1088F000039B013BDBB20393FF2B00D010E7029BED
:10890000002B00D09DE0059B002B50D0079A531CF4
:1089100000D18FE0D30094465048514A514C8158C1
:10892000524663448A1A9B0012022578F618120AEE
:1089300073680332002D1FD18025D1266D02B60049
:108940008551403E8551C0278026474DB6027F00A5
:10895000EE512E60012505602F200138C046C0462B
:10896000C046C046C046C046C046C046C046C046D7
:10897000C046C046F1D12570934200D21300A82012
:108980005344364A1B021B0AC000135034485B1A7A
:1089900012581B02521A1202120A03321B0A9A427E
:1089A00005D980238021304A5B008902D150002301
:1089B0002E4A13700FB03CBC90469946A246AB4677
:1089C000F0BD012700217F42BC46079A0F0000201E
:1089D0000025984609991BE0D3009B189B00F318CB
:1089E0005C688C421CD81F69091B00195D601D75ED
:1089F0001C6AB946002F09D0049F3F183F023F0A66
:108A00009F604F46DF60674694461F6247462200DC
:108A1000531CE1D1391E67460FD1089B05936DE6C3
:108A20000991391E674615D1099AA41A5C60089B02
:108A3000059363E6FFF7F4FCB9E70D4B07921A6064
:108A4000EBE762460A4B1A60079B9C4500D15AE748
:108A500007925BE7064907920A60E5E700100140CC
:108A6000040500008E20002000E100E08D200020A1
:108A7000A0200020F0B5C6461D0000B580460F00BE
:108A800016001C00AB075CD1002D5AD0FFF7C8FCC4
:108A90002E4B069A1A602E4B1F702E4B1D60002322
:108AA000002F09D00022FB00D91989004919227032
:108AB000227524348C42FAD10321274ADB19117024
:108AC0009B00264AEB1813601A0071008919C9002F
:108AD00018325A605218DA60002052185A61012286
:108AE000002418809E70188118829E729E741C4B00
:108AF00052421A6080211B4BC5201C701A4B8232D7
:108B00001C70FF24194B4903FF32995080001A58FA
:108B1000A2433F3C22431A50A1221960C42441467B
:108B20001348D2008150A4001A5912491140C022A2
:108B300012020A431A51104BC258104B00201A60FF
:108B400000E0072004BC9046F0BDC046882000200D
:108B50008C200020A8200020A4200020AC20002091
:108B6000A0200020982000209920002000E100E0B3
:108B700000100140FF00FFFF040500009C200020C2
:108B8000F0B5174B8C461D681100002D26D0002A29
:108B900022D0002820D0134B1F78002F11D02B7823
:108BA000002B10D02C000023243407E025002434AF
:108BB0002600243E36781A00002E05D00133BB4231
:108BC000F4DB0420F0BD002201232B706346A96171
:108BD0006B7002600020F5E70720F3E70820F1E75B
:108BE000A82000208C200020F0B5C64600B53E4BE2
:108BF0001B68002B66D03D4C2478844259D9042947
:108C000057D9C4002418A4001B191D780824012D6D
:108C100050D100245B78A046012B4FD0344B5C68C8
:108C20001023E405E40D1AD00D3B1F00103C66B282
:108C3000E4B22740FF00002E48DBB608C0362D4CBA
:108C4000B6003459FC40A4092340DBB2012B3BD0D1
:108C5000033B5C42634107245B42A3431033264C31
:108C60002468E3185F789C787E1C341B651EAC4139
:108C7000644226401C78B44222D07C00E4195F682C
:108C8000E400BC466444002C1AD0012760602770C1
:108C90001A481B4F3858E160414662612161A0606B
:108CA00080215E708023134A5B004903D150002469
:108CB00000E00724200004BC9046F0BD8846ADE7E4
:108CC0000424F7E70824F5E70023C8E70F260D4D35
:108CD0003440AC46083CA408A40064446468FC40EA
:108CE000A4092340B1E7C046A82000208C20002022
:108CF00000ED00E000E100E0AC20002004050000F1
:108D00000010014018ED00E030B5344B0200196846
:108D1000002952D0324B1B7883424AD9C3001B181A
:108D20009B005B5C0820012B00D030BD2D4B102137
:108D30005B68DB05DB0D1AD00D390C00103B58B217
:108D4000DBB21C40E40000283BDB8008C030264B2F
:108D50008000C358E3409B091940C9B201292ED0B5
:108D600003394B42594107234942994310311F4B64
:108D70001B68591848788B78441CE31A5D1EAB4178
:108D80005B421C400B78A34215D043001B18486877
:108D9000DB0084466344002B0DD002205A6018701B
:108DA0004C7080238021104A5B004903D150002081
:108DB000BBE70720B9E70420B7E70820B5E70021A3
:108DC000D5E70F2003400A48083B84469B089B00D8
:108DD00063445B68E3409B091940BEE7A82000207C
:108DE0008C20002000ED00E000E100E0AC2000203D
:108DF00018ED00E070B5161E07DD0C008D18207808
:108E0000013400F071FAAC42F9D1300070BDC046B7
:108E100010B50C00200000F05FFA0528FAD0012000
:108E200010BDC04630B585B000F0A0FC00280AD1C6
:108E3000274C2378DBB2002B0FD0032B01D1022368
:108E4000237005B030BD224A1378DBB2012B25D048
:108E5000022BF6D103231370F3E7A02204211D4B4C
:108E6000D200995001221C481A608568C1688D4261
:108E70001DD02178022900D09A606B46D91DFFF7DA
:108E8000BDFA002815D00123124A02A8D36023702E
:108E900002330370114B1B689847D2E70021117011
:108EA0000C4AD3605360A023DB00D150C9E7227085
:108EB000C7E7C2218022074B89005A506946C8790A
:108EC0000749585002212170C12189005A50B8E742
:108ED000B020002000200040C8200020B420002046
:108EE0001C050000842210B5434B5200995884B0F1
:108EF00000291AD18E22404B5200995800292ED1B8
:108F000092223D4B5200995800290CD000219950D3
:108F10009021C9005A5802A85A5002230370374BB7
:108F200042601B68984704B010BD00219950A322ED
:108F3000D2009958324CC9B22000FFF74DFA0028F0
:108F40002FD0012202AB1A702C4A0390126818002D
:108F500090478E22284B520099580029D0D00021EA
:108F6000284C99502278D2B2002AC9D0022A09D9B5
:108F7000032AC5D1023A2170DA605A60A022D200D9
:108F80009950BDE720488168C268914215D10122FD
:108F9000DA602270032302A80370184B1B689847FD
:108FA000AEE7A268E3689B1A012BA3D1134A02AB78
:108FB00018701268180090479CE72278022A01D0A6
:108FC00001229A606B46D91DFFF718FA002804D0D9
:108FD0000123094AD3602370DCE7C2218022064BBB
:108FE00089005A506946C8790849585002212170B1
:108FF000C12189005A5083E700200040B42000209E
:10900000B8200020B0200020C82000201C0500004F
:10901000F0B5454657464E46DE4698460023E0B535
:109020000D009F4F9F4987B006000B703A60002DDE
:1090300000D17AE0AA8829689B48FFF7BBF9041E93
:1090400007D0200007B03CBC90469946A246AB46EC
:10905000F0BD964BAA89A96818009946FFF7AAF9AE
:10906000041EEED1A02203217378D205C133FF3351
:109070009B0099503378C133FF339B00985071782F
:109080008B4B8C4A995031788B4A9950B1688B4AF6
:1090900099507279002A4AD00E21894A9950337921
:1090A000022B62D0012B45D0A0220421804BD2009C
:1090B000995000220531FF315A50814814315A50DD
:1090C000195801329143195001216438494219500D
:1090D000083019509A601A60724B1A70109B1B88E6
:1090E000002B05D1774A1378591C1170109A138000
:1090F000C22201216E4B920049429950A121043AAB
:1091000089009950C02304206F4A5B00D050C025CD
:109110004346FF26AD0036049B05515933406B4E44
:1091200031400B43535110608BE7072489E7644AB1
:109130009850B4E7A02104205D4AC9005050002196
:109140000530FF301150143011505D48115819434B
:109150001150A221F078C9005050B0780839505011
:10916000936013604F4A1370B8E700F061F900286C
:1091700004D100F02DF98246002812D102AB03225F
:10918000002118009A46FFF711F801239B46534629
:109190005A465A705146B07800F052F9824600287B
:1091A00001D054464DE7A223012258464049DB0036
:1091B0005242CA50B278083BCA50414A8B580343C6
:1091C0008B50032303A90B7053464B708B70CB70ED
:1091D000F0783F4A00F098F982460028E1D1F07813
:1091E000012100F069FAF07800F0C0FA2D4B1B78ED
:1091F000DBB2002808D0012B0FD0022B00D06DE786
:109200000322284B1A7069E7002B10D0032B00D0E3
:1092100064E70223234A137060E75146214A117024
:10922000234AD3605360A023DB00D15056E7A0232C
:1092300004221F49DB00CA505B460B604B469A680C
:10924000DB689A4218D0174B1B78022B01D05B4683
:109250008B606B46DE1D31004846FFF7CFF80028D3
:109260000ED00123124A04A8D3600E4A13700233B1
:1092700003703B68984731E75A460A4B1A702DE74E
:10928000C22180220A4B89005A5030781149585027
:10929000022104480170C12189005A501EE7C046CE
:1092A000B4200020B0200020B8200020C8200020DA
:1092B000002000400C0500001405000024050000FB
:1092C0006C0500006420002000E100E0FFFF00FFCB
:1092D000258E01001C05000010B501000148FFF7B4
:1092E0008DF810BDB820002070B51A4D010084B073
:1092F0002800FFF771F8184C06002378DBB2012B29
:1093000002D0300004B070BD2278022A01D0134A86
:1093100093606B462800D91DFFF770F800280AD02B
:1093200001230E4A02A8D3602370023303700C4B52
:109330001B689847E5E7C2218022084B89005A50F4
:109340006946C8790749585002212170C121890016
:109350005A50D6E7C8200020B0200020002000404E
:10936000B42000201C050000FF22032330B51400A8
:10937000C5B22B40DB009C4089010A40E4439A407F
:10938000002814DB104B80089C46C02380006044FA
:109390009B00C1580C402243C2501F23C0211D40D6
:1093A0001E3BAB40084A49005350136030BD0F23A9
:1093B00006492B408C46083B9B089B006344D969B7
:1093C0000C402243DA61E8E700E100E000ED00E054
:1093D00010B5154C2378002B23D15022013BA3520A
:1093E0006360A360E36023616361A361E36123625F
:1093F0006362A362E36223636363A363E36323643F
:109400006364A364E36401210620FFF7ADFFC12379
:109410008021064A9B000906D150012300202370B9
:1094200010BD0820FCE7C046D820002000600040A6
:10943000024B1878431E9841C0B27047D8200020D4
:10944000F0B500252C4A082413182C335D5701353C
:1094500010D18C78002C0FD05368013348D093681A
:10946000013347D0D368013319D01369042403258D
:10947000013315D02000F0BDFE221A700300A02297
:109480000324C133FF339B00D2059C50012349784C
:109490008340012927D0194900245350EAE70225C7
:1094A00013182C331D700023AD0052195360144A59
:1094B000144FAA18A225ED0056590B783E40C0273C
:1094C0001B04BF023B4080274C787F0324053C40AF
:1094D000F827565123437F01040256593C40234349
:1094E00033435351CAE7A121C90053500024C1E7B7
:1094F0000025D5E70125D3E7D82000200C05000082
:1095000000600040FFE0ECFFF0B5CE46474680B576
:10951000664B91461C182C34267808257F2E58D986
:10952000CE78002E5AD15A69013200D1B5E0052516
:109530000A27AC001A195268013200D173E06A1C84
:10954000940094461A195268013200D1A3E0AA1C73
:109550009446BA423CD294001A195268013200D1A2
:1095600099E0EA1C9446BA4232D294001A19526821
:10957000013200D18FE02A1D9446BA4228D29400CD
:109580001A195268013200D185E06A1D9446BA4228
:109590001ED294001C196468621C00D183E0AA1DCD
:1095A0009446BA4214D294001A195268013200D17A
:1095B00071E0EA1D9446BA420AD294001A19526820
:1095C000013268D00835BD4202D29A6A013228D0F1
:1095D000042528000CBC90469946F0BD5A68012528
:1095E00004270132A5D100274A4627705A608A789D
:1095F000002A2BD0A024E405A446E0250226820000
:109600006244ED005459B44354510A78C978002992
:1096100029D1DB194833197892010A431A700025C1
:10962000D7E7092524241A1894462C229046C444CE
:1096300062466FB217704A461C196260002ED6D17E
:109640005D19483528708A78002AD3D10200A025F8
:109650004C78C132FF329200A400ED0554510A78D3
:10966000C9780029D5D01249BB008C46A221634499
:10967000C9005C580F4D00022C40F8256D012840B0
:10968000C0255C50AD0212045C582A4010432043B0
:10969000585000259DE76546C5E704254A462570D4
:1096A0005A610427CCE76546AC00BCE7D82000200F
:1096B00000600040FFE0FCFF30B5294B1A182C3247
:1096C000127852B2032A1FDD9B1848331B789B097E
:1096D000032B34D0013B5A1E934180225B4252023D
:1096E00013408022920294466344A022D2059446FD
:1096F000E02280006044D20081581A4C2140815001
:1097000081580B43835030BDD3B2032BFBD816488E
:10971000A2258446012493006344ED005859204358
:10972000585113006046002540339B009BB21D50EA
:109730000029E8D0C12394409B00C450E3E7A02255
:10974000A223D205DB00D3580122824013405A42A3
:109750005341C022920294465B421B046344C4E717
:10976000D8200020FFFFFCFF00600040A022A223C1
:10977000D205DB00D358C340012018407047C046D3
:10978000F0B5D6464F464646C0B5C94A00251368CF
:10979000012B00D15AE1C74B1A68012A00D149E1D7
:1097A000C54B1A68012A00D138E1C44B1A68012A56
:1097B0000FD00022C24B92461B68012B00D120E142
:1097C0002B0717D1002D32DB1CBC90469946A246D0
:1097D000F0BDC122BB499200895808220A42E8D054
:1097E00000211960B64B15431B68012B00D108E11D
:1097F00000239A4603239946B34BA227012600244F
:109800009846FF0035420CD0AE4AA3009A18D059B2
:10981000D1594A46090CC00443441140C00E5B684C
:10982000984701347600042CECD1002DCCDA4C237F
:10983000A54CE15C74330800984323182C331B7843
:109840005BB2032B18DD9B00E3185D68002D13D07D
:10985000A0230126DB059C46E02386405746820074
:109860006244DB00D35889099B039B0F374200D029
:10987000FFE0032B00D154E14D23E15C733308007A
:10988000984323182C331B785BB2032B18DD9B0005
:10989000E3185D68002D13D0A0230126DB059C464C
:1098A000E0238640574682006244DB00D358890992
:1098B0009B039B0F374200D0EAE0032B00D10EE15F
:1098C0004E23E15C72330800984323182C331B7835
:1098D0005BB2032B18DD9B00E3185D68002D13D0ED
:1098E000A0230126DB059C46E023864057468200E4
:1098F0006244DB00D35889099B039B0F374200D099
:10990000E6E0032B00D11DE14F23E15C7133080039
:10991000984323182C331B785BB2032B18DD9B0074
:10992000E3185D68002D13D0A0230126DB059C46BB
:10993000E0238640574682006244DB00D358890901
:109940009B039B0F374200D0AAE0032B00D1D7E046
:109950005023E15C70330800984323182C331B78A4
:109960005BB2032B17DD9B00E3185D68002D12D05E
:10997000A0230126DB059C46E02386405746820053
:109980006244DB00D35889099B039B0F374278D18F
:10999000032B00D1E7E05123E15C6F3308009843CB
:1099A00023182C331B785BB2032B00DC0CE79B00E5
:1099B000E4186568002D00D106E7A0230124DB052B
:1099C0009C46E0238440564682006244DB00D35824
:1099D00089099B039B0F264242D1032B00D0F3E65B
:1099E00003290CD180239B029C46E023DB00D65840
:1099F000364F3E40D6506646D4583443D450A847DC
:109A0000E2E600222E4B1A6080231B061D43A02293
:109A1000A223D205DB00D3589A46D1E6C1222949B8
:109A20009200895804220A4200D1BEE60021154363
:109A30001960BAE6C12223499200895802220A42DB
:109A400000D1ADE6002115431960A9E6C1211D48EA
:109A5000890045581D4000D19DE6002313609AE619
:109A6000022B00D0B0E60329C9D1C0239B029C463B
:109A7000BBE7022B00D0FFE6032900D18CE0A8470A
:109A8000FAE6022B87D1032900D18DE0A84782E7AF
:109A9000022B00D014E7032900D181E0A8470FE78B
:109AA000022B00D054E7032972D0A84750E7C046E4
:109AB0000061004004610040086100400C6100400A
:109AC0007C61004000600040D8200020FFFFFCFFC8
:109AD000022B00D018E7032956D0A84714E7032922
:109AE000DCD180239B029C46E023DB00D758304E1C
:109AF0003740D7506746D6583E43D650A847DFE692
:109B00000329D2D180239B029846E023DB00D6585C
:109B1000274F3E404746D650D6583E43D650A847DA
:109B200016E70329ABD180239B029C46E023DB0090
:109B3000D7581F4E3740D7506746D6583E43D65069
:109B4000A84799E60329C8D180239B029846E023C1
:109B5000DB00D658164F3E404746D650D6583E43B7
:109B6000D650A847D0E6032990D180239B0298467F
:109B7000E023DB00D6580E4F3E404746D650D6581D
:109B80003E43D650A84706E7C0239B029846DEE72F
:109B9000C0239B029846B8E7C0239B029C46C5E7BA
:109BA000C0239B029C469FE7C0239B029846DFE7A9
:109BB000FFFFFCFF074B1B78002B06D0002806D0C8
:109BC000054B5B780360002070470820FCE70E20FF
:109BD000FAE7C046F82100202C2100208021A02295
:109BE000490310B50C00A120044BD205D358C00086
:109BF0009C430B4002491450535010BD0405000013
:109C00000C050000F8B5CE464746040080B5102884
:109C100005D0112836D00CBC90469946F8BD0025D9
:109C2000012911D000291FD00229F4D16B005B1942
:109C30001E4DED186E78002EEDD01D4B1B68002BCD
:109C4000E9D030009847E6E7184F6B0098465B195B
:109C5000FE5CFB185B78002B16D143465B19FF189E
:109C6000BA78144B5A55E6E7134B1868FFF74CF8CF
:109C70006A000E4B52199B189E780E4B5B5DB342E7
:109C8000C9D1D8E70125CBE70C4B99460C4B4A4686
:109C90001B689900C918084B49001868FEF7A4FF13
:109CA0000028DAD14B461C70D7E7C04608220020B6
:109CB000182200202022002004220020F921002068
:109CC00000220020F8B5B54B1B68DB0700D4F8BDB7
:109CD000B34A1478172CFAD8B249A300CB589F4640
:109CE0008021A02209030C00A120AF4BD205D3583C
:109CF000C0009C430B40AD4914505350AC4B002264
:109D00001B689900C918AB4B1868FEF76DFFDEE7BA
:109D1000A023F821A54ADB05C90399500021043A84
:109D20009950D4E78021A02209030C00A1209E4B6A
:109D3000D205D358C0009C430B409C49145053504B
:109D40009B4B002219689B4B1868FEF74DFFBEE73E
:109D5000A021A120D0230026C905DB03C000934C1D
:109D60000B50914B0E51CD58F823DB036B408025EF
:109D7000ED022B4000D109E10D5008200E510323C4
:109D800013708B4B002219688A4B41431868FEF709
:109D90002BFF9CE7A021A120D0230026C905DB03CF
:109DA000C000824C0B50804B0E51CD58F823DB0382
:109DB0006B408025ED022B4000D1E2E00D500423E2
:109DC0000E512820DCE7A023A122F021DB05D200E0
:109DD000C9038024995000217448E40219501C5092
:109DE000995074E7744D2868FEF78EFF11231C1BF1
:109DF00000D1AEE0002800D0ABE0012C0BD0C83081
:109E00006421604302F05EF9694B00221968414306
:109E10002868FEF7E9FEA0238021644ADB05490398
:109E200099500021043A995051E7A023A122D8214A
:109E3000DB05D200C903995000215C4A995046E7DE
:109E4000A021A120D0230027C905DB03C000574D66
:109E50000B50554B4F51CE58F823DB0373408026EF
:109E6000F602334000D17FE00E504F51A11E4B1E31
:109E700099414B421621194012314D4B14701B6809
:109E8000002259434B4B1868FEF7AEFE1FE7A02394
:109E9000A122E021DB05D200C903C0249950002192
:109EA0004248240319501C50995010E7A023A122C6
:109EB000E821DB05D200C9038024995000213B48EA
:109EC000240319501C50995001E7A023A122DB055F
:109ED000D200F821AEE7A023A122DB05D200D021D9
:109EE00076E7A021A120D0230026C905DB03C0000E
:109EF0002E4C0B502C4B0E51CD58F823DB036B40EE
:109F00008025ED022B4039D00D500E5105231370E2
:109F1000274B00221968274B49001868FEF764FE9A
:109F2000D5E6A021A120D0230026C905DB03C0006F
:109F30001E4C0B501C4B0E51CD58F823DB036B40CD
:109F40008025ED022B4025D00D500E5106231370B5
:109F5000F6E6A023A1228021DB05D2004903995017
:109F60000021124A9950B2E64E510B50A11E4B1ED1
:109F700099414B420221194002317EE70D510B50AD
:109F8000C4E70D510B5004200423F9E60D510B508A
:109F90000220F4E60D510B50D8E7C04610220020F5
:109FA0001C220020A8D00100040500000C050000C0
:109FB0000022002014220020FC21002010B503788C
:109FC000102B03D00122112B01D010BD0022530011
:109FD0009A18054B9B1858780028F6D0034B1B683D
:109FE000002BF2D09847F0E708220020182200202A
:109FF0000023012802D900200B707047A022A22361
:10A00000D205DB00D258054B8000C05801238340A5
:10A0100093435A1E9341DBB2EDE7C04678D101006D
:10A0200070B5D04B04001B680020DB0700D470BD66
:10A03000172CFCD8CC4AA300D3589F468021A022DD
:10A0400009030C00A120C94BD205D358C0009C4382
:10A050000B40C74914505350C64B00221B6899004F
:10A06000C918C54B1868FEF7BFFDE0E78021A022A4
:10A0700009030C00A120BD4BD205D358C0009C435E
:10A080000B40BB4914505350BA4B00221968BA4BCD
:10A090001868FEF7A9FDCAE7B84D2868FEF734FE38
:10A0A00011231C1B00D13AE1002800D037E1012C1C
:10A0B0000BD0C8306421604302F004F8AD4B00229D
:10A0C000196841432868FEF78FFDA0238021A84A24
:10A0D000DB05490399500021043A9950A7E7A023D2
:10A0E000A122F821DB05D200C90399500021A04A22
:10A0F000002099501222A24B1A7098E7A023A122A7
:10A10000F021DB05D200C903802499500021984832
:10A11000E40219501C5099501322994B00201A70D8
:10A1200085E7A023F821924ADB05C9039950002155
:10A13000043A9950924B00201C7078E7A022A1238A
:10A14000D821D205DB00C903D15000238849002063
:10A1500053508B4A13706AE7A022A121D023002616
:10A16000D205DB03C90082485350804B1650D558A6
:10A17000F823DB036B408025ED022B4000D1E4E0A7
:10A180005550A11E4B1E99414B42162119401650A5
:10A1900012317B4B00221C70764B1B685943764B67
:10A1A0001868FEF721FD42E7A023F821704ADB057D
:10A1B000C90399500021043A9950002037E7A022A2
:10A1C000A121D0230025D205DB03C90068485350E4
:10A1D000664B1550D458F823DB0363408024E40217
:10A1E000234000D1A6E05450155008200322644BB0
:10A1F0001A70604B002219685F4B41431868FEF7E4
:10A20000F3FC14E7A022A121D0230025D205DB0313
:10A21000C90057485350554B1550D458F823DB0309
:10A2200063408024E402234000D18AE0545015505A
:10A230002820534B0422DBE7A023A122D021DB05F9
:10A24000D200C9038024995000214948E4021950E2
:10A250001C50995007224A4B00201A70E7E6A022B2
:10A26000A121D0230025D205DB03C900404853506B
:10A270003E4B1550D458F823DB0363408024E4029E
:10A2800023405BD05450155005223D4B1A70394B7A
:10A2900000221968384B49001868FEF7A5FCC6E68D
:10A2A000A022A121D0230025D205DB03C90030481C
:10A2B00053502E4B1550D458F823DB0363408024B1
:10A2C000E40223404BD05450155006222C4B1A70F8
:10A2D000DAE6A023A122E821DB05D200C90380240D
:10A2E000995000212248240319501C5099501422DF
:10A2F000234B00201A709AE6A023A122E021DB055F
:10A30000D200C903C02499500021194824031950D0
:10A310001C50995015221A4B00201A7087E6A02372
:10A32000A1228021DB05D200490399500021104A67
:10A3300099507CE614505350022057E71450535064
:10A34000A2E714505350042073E715505350A11E38
:10A350004B1E99414B4202211940023119E714501A
:10A360005350B2E71022002008D10100040500007C
:10A370000C0500000022002014220020FC210020F7
:10A380001C220020274B10B51960274B01241860B0
:10A39000264B04401A60022318400ED00D22244B95
:10A3A00024481A700132DA704A080221FDF786FF4C
:10A3B00000281CD0002C19D024E0002C0AD0A023A7
:10A3C000F822A121DB05D203C9005A501A4958507E
:10A3D0000C315A50194A00211948FEF7D1FB0028C8
:10A3E00004D1184A01211848FEF7CAFB10BDFDF739
:10A3F000BDFF0028DED1154A00211548FEF7C0FB3D
:10A40000002C0BD0A023F822A1210024DB05D203CD
:10A41000C9005A5008495C500C315A500028E5D107
:10A42000D8E7C04600220020102200201822002079
:10A430000822002068D101000C050000C59C010025
:10A4400014220020DD9B0100FC210020BD9F0100A3
:10A450000422002003000720012B0DD8012A0CD074
:10A46000012910D0002916D0022912D15800C01895
:10A470000C4B1B1800205A70704700220129EFD1A5
:10A480001A000D32D2B258000649C3185A5400209F
:10A49000F2E70720F0E75800C018024B1B189A702B
:10A4A0000020E9E708220020A022E823D205DB00F3
:10A4B000D2580123034001D0C0239B020B490A401C
:10A4C0001343E821A022C900D2055350084BD258AB
:10A4D0000223184001D0C0208002044B1340A02268
:10A4E0001843034BD205D05000207047FFFFFCFFFC
:10A4F0004407000010B50320FFF7D6FF002804D062
:10A50000831F5A1E93415B42184010BD10B503884B
:10A51000102B08D0112B05D1294A1368013B136079
:10A52000002B07D010BD264C2368002B11D001331F
:10A530002360F7E7012202210020FFF78BFF0028AC
:10A540002BD0072829D01F4B1B68002BEAD0984737
:10A55000E8E7012200210020FFF77CFF002808D057
:10A56000072806D0174B1B68002B00D0984723689C
:10A57000DDE7072202210120FFF76CFF002801D050
:10A580000728EFD1042202210020FFF763FF0028F3
:10A59000EDD00728E6D12368C9E707220221012070
:10A5A000FFF758FF002801D00728CCD10A2200214C
:10A5B0000020FFF74FFF0028B4D00728C3D1B1E730
:10A5C000282200202422002010B5234B82B00C1E2C
:10A5D00018600AD06B460020991DFFF709FD00287E
:10A5E00025D002B010BD022323701C4B1B68002B2A
:10A5F00001D00020F5E7012202210020FFF72AFF09
:10A60000002801D00728ECD1072202210120FFF702
:10A6100021FF002801D00728E3D10A2200210020D1
:10A62000FFF718FF0028E4D00728DAD1E1E76B46EE
:10A630000130D91DFFF7DCFC0028D2D16B46DB7955
:10A64000002BD0D16B469B79002B01D12370CCE736
:10A650000B232370C9E7C0462422002028220020B3
:10A6600076DF70477ADF70477CDF70477FDF7047A7
:10A67000A9DF704760DF70473CDF704748DF7047F5
:10A6800010B500220021FDF789FE10BD70B5002A2B
:10A6900009D00C008D182078FEF726FE0028FAD18C
:10A6A0000134AC42F7D10A20FEF71EFE0028FAD191
:10A6B00070BDC04610B50378002B00D010BD064B0E
:10A6C0003B211888FFF7CCFF0028F7D0002200219B
:10A6D000FDF764FEF2E7C0466C20002010B50400D0
:10A6E00001F0E6F92100244801F07EFA2388112BBD
:10A6F0002DD021D9132B11D0522B08D11F4B002262
:10A70000188800210023FFF7B3FF00280FD1200095
:10A7100001F020F82000FFF7F9FE10BD174B0022D2
:10A72000188885210023FFF7A1FF0028EFD0002221
:10A730000021FDF733FEEAE7102BE8D10720FFF7F1
:10A740006FFC002812D1A2880C4B1A80DFE7002092
:10A75000FFF766FC002804D10122084B52421A8000
:10A76000D5E700220021FDF719FEF5E700220021C0
:10A77000FDF714FEE7E7C0461C2500206C200020F2
:10A7800010B5072820D00A2810D0042800D010BD0A
:10A79000144B13211888FFF763FF082302009A4324
:10A7A000F5D000220021FDF7F9FDF0E70020FFF7CA
:10A7B00037FC002810D1FFF79DFE002807D1FFF7D6
:10A7C0005BFF0028E3D0ECE701F072F8E5E7002238
:10A7D0000021FDF7E3FDF2E700220021FDF7DEFD99
:10A7E000E9E7C0466C20002070B50378012B03D048
:10A7F000002B07D0022B04D1406800220021FDF776
:10A80000CDFD70BD104C114D20782818FEF764FD69
:10A8100022780132D2B2AB18013B1B7822700A2B8E
:10A8200001D0132AEDD992B22900094801F0EAFAC1
:10A83000082302009A4302D100232370E1E700229B
:10A840000021FDF7ABFDF7E71825002004250020C7
:10A850001C25002010B5002806D0022803D1FFF7E0
:10A86000DFFB00280DD110BD0020FFF7D9FB002829
:10A870000CD1FFF73FFE002810D1FFF7FDFE0028A6
:10A88000F1D000220021FDF789FDECE70022002134
:10A89000FDF784FDFFF72EFE0028EED000220021F8
:10A8A000FDF77CFDE9E7C04610B50A00010002484B
:10A8B000FDF774FD10BDC046EFBEADDEF0B5C64677
:10A8C00000B5A6B003AF3A00814B03CB03C21B888F
:10A8D0000521138000230522009300207D4BFEF705
:10A8E000C9F8002803D000220021FDF757FD0EAD66
:10A8F0002A00794B06AE13CB13C200233380774B6B
:10A90000774A1A9380231AAC5B006360A260E3600D
:10A91000744A0096FD3B21002800FEF779FB0028D1
:10A9200003D000220021FDF739FD6F4A6F49032053
:10A93000FFF728FD002803D000220021FDF72EFD9F
:10A9400021000020FFF740FE002803D00022002154
:10A95000FDF724FD002348226549082001F03EFB55
:10A96000002803D000220021FDF718FD0822002155
:10A970002000FDF71BFC00230122636023782000E8
:10A9800093432370FFF776FE002803D000220021B6
:10A99000FDF704FD574801F047FB002803D00022D3
:10A9A0000021FDF7FBFC11232B70534B1800984638
:10A9B00001F038FC414682B22800FFF755FE00281E
:10A9C00003D000220021FDF7E9FC0822002120002D
:10A9D000FDF7ECFB494B20001A93C8235B041B9343
:10A9E000FFF740FE002803D000220021FDF7D6FC2F
:10A9F000002104222000FDF7D9FB414B21004148F2
:10AA00001A9301F021F9002803D000220021FDF75C
:10AA1000C5FC302200212800FDF7C8FB02232B7063
:10AA2000002330229846AB70002105332000EB70E4
:10AA3000FDF7BCFB01232382334B20220021300091
:10AA40006361FDF7B3FB012333724023F36074337A
:10AA5000336143463200009321002C4B280000F064
:10AA6000A1FD002803D000220021FDF797FC1C2245
:10AA700000212000FDF79AFBA02292026260F022E2
:10AA800000231203A26003221A93E3812374204B54
:10AA9000200063611F4B2273A36100F0CDFF0028EB
:10AAA00003D000220021FDF779FC39001A4801F09B
:10AAB0009FFB022000F030FE002803D1FFF7DEFDEF
:10AAC0000028FBD000220021FDF768FCF6E7C04615
:10AAD0009CD101002C22002080D1010038250020CB
:10AAE00038260020E9A7010081A70100CD0C000055
:10AAF000BC240020DDA601008CD1010010003C0028
:10AB00008DA601001C2500206820002055A801000A
:10AB1000B5A6010081A6010098D1010072DF70473F
:10AB200079DF70477DDF704765DF7047F0B5DE463F
:10AB300057464E464546E0B585B09B460E9B0700FE
:10AB400098461B780091019303889146002B5ED0B4
:10AB500000239A4602AB0024DD1C03E03B8801344D
:10AB6000A3422DDD7B68A1009C460422614403A81A
:10AB700001F034FB0022290003A8FFF7D5FF061ED1
:10AB800028D12B784B45E9D1434651461A784B469C
:10AB9000D318002926D01F2B3BDC5A44290003A8D8
:10ABA000FFF7C2FF002830D143462A781B780134D2
:10ABB0009B184246137001239A463B88A342D1DC7E
:10ABC0005346002B23D0434659461B78019A013B3C
:10ABD0009B1A8B54300005B03CBC90469946A24667
:10ABE000AB46F0BD1D2B14DC4146931C0B705B463D
:10ABF00000990132D2B2995443461A7829005A4436
:10AC000003A8FFF791FF0028CED00600E2E7002658
:10AC1000E0E70C26DEE7C046F0B557464E4645460F
:10AC2000DE46E0B597B002AA0D279446002367449C
:10AC300005AD04000E002B7003973B70002830D048
:10AC4000C278530725D50378002B00D0AAE183787A
:10AC5000002B00D0DEE006A90023884602214046F2
:10AC6000C154991CC9B2894601218C4641466746A8
:10AC7000581CC0B20F5448460333DBB22B700A5441
:10AC80006268002A00D1F7E01C2B00D8E5E00C2018
:10AC900000E0072017B03CBC90469946A246AB4660
:10ACA000F0BD0024002E00D174E1F378002BF0D128
:10ACB000039A13703278002A00D0E1E1B278002ABA
:10ACC00000D0E3E272680EA98946002A0FD0002165
:10ACD0004846515602224F46C2540A205A1CD2B24C
:10ACE000B854DA1C03980233DBB20270F95433898A
:10ACF000002B00D092E2338A002B00D0AAE2338BE3
:10AD0000002B00D0C8E2336A002B46D0039A127899
:10AD1000911D8A461F29BAD818880528B9D9D54F58
:10AD2000BC4684446746BFB2BC46D34FB846BC4518
:10AD3000AFD95F88BC46052FABD9CE4F6744BFB2B1
:10AD40004745A6D9CD4FB84203D0BC4501D0604598
:10AD50009FD80EA8814605204F46B854901C571C1A
:10AD6000C1B2FFB28B46BC4612275846B84603997B
:10AD70004F46087060464146395458461988484441
:10AD80000170090A417004325B88D2B24A441370E0
:10AD90001B0A53705246039B1A70736A9846002B25
:10ADA0002ED0039F18793B78811C9A1CC9B2511888
:10ADB0001F2900DD6BE70EA989460330D2B2C854C3
:10ADC0003A70FF204F46591CC9B2785441460433AB
:10ADD000D8B2434609884A44039F1170090A51704A
:10ADE00038709A88002A0BD09968002900D150E762
:10ADF000484401F0F3F943463A789B889B183B702E
:10AE00002C23F35C9C46002B00D063E2039B0EAA2C
:10AE10001B78C2E00EAB99464846FFF781FE00283A
:10AE200000D037E706AA9046032241462B784046D9
:10AE3000CA5419215A1CD2B281544A4611889A1C0C
:10AE4000D2B2424404331170DBB2090A51702B7044
:10AE5000E278002A00D113E700E70021404651566E
:10AE600002224746C2540A205A1CD2B2B854DA1CF5
:10AE70000233DBB22A70F9542389002B00D0C8E0DA
:10AE8000238A002B00D0DCE0238B002B00D0ADE127
:10AE9000236A002B46D02A78911D8B461F2900D9A2
:10AEA000F5E61888052800D8F3E6724FBC468444BE
:10AEB0006746BFB2BC46704FB946BC4500D8E8E60D
:10AEC0005F88BC46052F00D8E3E66A4F6744BFB2EF
:10AED0004F4500D8DDE6694FB84204D0BC4502D0EA
:10AEE000604500D9D5E605204746B854571CFFB247
:10AEF000BC461227B946901CC1B229708A466046EA
:10AF00004946474639545046198840440170090A59
:10AF1000417004325B88D2B2424413701B0A5370F2
:10AF20005B462B70636A9946002B2BD018792B78DF
:10AF3000811C9A1CC9B251181F2900DDA7E64146A1
:10AF40000330C8544746FF20591CC9B278544946BB
:10AF5000181D4B46D2B22A70098842441170C0B203
:10AF6000090A517028709A88002A0BD09968002924
:10AF700000D18EE6404401F031F94B462A789B8897
:10AF80009B182B702C23E35C9C46002B00D0E9E03F
:10AF9000444687E60022039B1B7829782000FFF7B0
:10AFA000BDFD77E643780C201D2B00D972E60EAB71
:10AFB00099461D234A46138002AB9C4606304946FB
:10AFC0006044FFF7AFFD002800D063E62378022B32
:10AFD00000D1CAE16378002B03D09BB208211D2B5E
:10AFE00002D94B4608211B8806AA90464046DBB290
:10AFF0005A1C02702A78417002329B18DBB22B7007
:10B00000A278002A00D163E10C201B2B00D941E675
:10B0100002E708239946A1440095434602220221F3
:10B020004846FFF783FD002800D033E600954346ED
:10B03000102206214846FFF779FD002800D11FE7BE
:10B0400028E610239946A144009543460222032195
:10B050004846FFF76BFD002800D01BE600954346ED
:10B06000102207214846FFF761FD002800D10BE7B9
:10B0700010E6C0467FF3FFFF7DF30000FFFF0000F6
:10B0800073781D2B00D902E602AA94460E2363446E
:10B09000984632201D234246414660441380FFF704
:10B0A00041FD002800D0F5E53378022B00D163E1A3
:10B0B0007378002B03D09BB208211D2B02D9434685
:10B0C00008211B880EAA91464846DBB241700399BD
:10B0D0005A1C02700A7802329B18DBB20B70B278ED
:10B0E000002A00D13EE10C201B2B00D9D2E54046BE
:10B0F000FFF716FD002800D0CCE50EAA91460322EA
:10B100004946039F48463B78CA5419215A1CD2B27B
:10B110008154424611889A1CD2B24A4404331170B9
:10B12000DBB2090A51703B70F27894466246002AFD
:10B130000FD00222494601204F46CA54591CC9B2B9
:10B14000785460469A1C03990333D2B2DBB20B7079
:10B15000B8547268002A00D1C9E51C2B00D8B6E5A6
:10B160000C2097E5A26A002A00D192E500239A46B6
:10B17000163328789B4600E0A26A534691465B004E
:10B1800053449B0099444B4642469B8841460333B7
:10B190001354831CDFB25B46421CD2B28B544B4625
:10B1A0002F701A883B0043441A70120A5A704B469B
:10B1B0000430C0B228709A88002A0FD099680029FC
:10B1C00000D166E5404401F009F84B4698882B7899
:10B1D000C0182C23E35CC0B29C4628705346013350
:10B1E000DBB29A466345C7D344465BE518239946CC
:10B1F000A14400954346022214214846FFF796FCDD
:10B20000002800D046E50095434610221521484607
:10B21000FFF78CFC002800D13AE63BE5082398466E
:10B220000EAB9946039BB044009302224B46022189
:10B230004046FFF77BFC002800D02BE5039B102243
:10B24000009306214B464046FFF770FC002800D1D2
:10B2500051E51FE5102398460EAB9946039BB04479
:10B26000009302224B4603214046FFF75FFC002873
:10B2700000D00FE5039B1022009307214B46404668
:10B28000FFF754FC002800D139E503E502AA0E239C
:10B290009446634498462AE7182398460EAB99468D
:10B2A000039BB044009302224B4614214046FFF713
:10B2B0003DFC002800D0EDE4039B102200931521F3
:10B2C0004B464046FFF732FC002800D11BE5E1E485
:10B2D000E278BEE5B06A002800D1DAE400229246A6
:10B2E0000EAA91461622039B93461B7800E0B06A93
:10B2F000524680465200524492009044424648468C
:10B300009288039F0332C2549A1CD2B23A705946B3
:10B310004F46581CC0B23954414608884A44043349
:10B32000039F1070DBB2000A50703B708A88002ABD
:10B3300010D08968002900D1ABE44B44180000F01C
:10B340004DFF2C224346B25C9B88944638781B18EC
:10B35000DBB23B7052460132D2B292466245C6D34E
:10B360004A461AE6F2789446E0E64B461B880921E5
:10B370001D2B00D838E62DE643461B8809211D2BDE
:10B3800000D89FE694E6C04673DF704774DF7047CD
:10B39000F0B57A4F87B0072200213800FCF706FF8E
:10B3A000774C784D6378002B35D0774E2B78326808
:10B3B000012B00D186E0217A002901D1022B34D063
:10B3C000217D002901D1032B34D0002A02D0023B79
:10B3D000012B42D900226D4B1A70182200216846B9
:10B3E000FCF7E4FE00236A46137013722A78019377
:10B3F0000393022A52D0032A3CD0012A1FD0002AEC
:10B4000023D13368002B00D190E0614A107898472F
:10B41000002007B0F0BD5C4E2B783268012BCAD1FA
:10B4200002232B70237A002B15D103232B70237D4D
:10B43000002B10D10023564A2B701370CAE76946BF
:10B440000493534B01970A701A706846FFF79CFFEC
:10B450000028D6D0DDE7002ABCD02378002BB9D055
:10B460004C4B1B78002BB5D10121484B062019709D
:10B470009047B2E76A46A3691382E3695382464B59
:10B480001A79002A4AD02278002A03D0414A127839
:10B49000002A5ED003223E4B1A70D6E76A46236923
:10B4A0005382E36813823C4B1A79002A3AD02278FF
:10B4B000002A03D0374A1278002A39D00222344BAE
:10B4C0001A70C2E7002A56D0344907200B70904703
:10B4D0002B783268012B00D06DE76378002B9FD06A
:10B4E0007B78002B00D075E7BB78002B00D071E78C
:10B4F000FB78002B00D06DE73B79002B00D069E78B
:10B500007B79002B00D065E7BB79002B00D061E789
:10B5100002232B70237A002B9DD186E71A7B002A09
:10B52000B8D0B0E71A7B002AC8D0C0E7002070E787
:10B530006946042402321A480A7200210393C47037
:10B54000FFF76AFB002800D063E7114B2A781C70D4
:10B5500055E7694603930423023211480A72002119
:10B56000C370FFF759FB002800D052E70522084BB3
:10B570001A702A7843E7094B1A70B1E7C8270020F0
:10B580003C27002039270020942700201428002081
:10B59000382700201528002004280020C427002078
:10B5A0005C270020F8B504000E00002800D193E0CD
:10B5B000002A00D190E000204849087048490B60FB
:10B5C0000699484B196048490B00A1CAA1C3A1CAFA
:10B5D000A1C321CA21C3CB68002B00D077E0002390
:10B5E0000B728B69002B00D06CE000230B750722D7
:10B5F00000213E48FCF7DAFD3D4B3E4A3E4D1A60C5
:10B600003E4A00219A6028003022FCF7CFFD2378C3
:10B6100022002B70A3781032AB70E378EB70637864
:10B620006B702B00103303CA03C32B00103A08338E
:10B6300003CA03C32B000832183303CA03C3636A67
:10B64000002B11D02E4B2F4F6B62616A9F600A88CE
:10B650001A8088889880002806D000238A68D25CE7
:10B66000FA5401338342F9D3A36A002B14D0264B3A
:10B67000264FAB62A16A9F60888898800A881A80EA
:10B68000002806D000238A68D25CFA540133834232
:10B69000F9D32C23E25CEA54236A002B06D01C4B1E
:10B6A0002B62226A5188598012881A806368002BA5
:10B6B00003D0184B6B6063686B6031002800FFF7A4
:10B6C000ABFAF8BDCB69002B00D090E78DE70B6992
:10B6D000002B00D085E782E70E20F2E73927002013
:10B6E00094270020902700203C270020C827002016
:10B6F00004280020182800205C270020382800207B
:10B70000B827002098270020D0270020DC27002021
:10B71000FC2700200028002010B500240B4B82B02D
:10B72000187001A80194FEF745FA082809D00028EE
:10B7300005D1019B002B05D00122054B1A7002B0E8
:10B7400010BD0194FFF724FEF9E7C0463927002019
:10B750008C27002030B5038883B0112B40D0192BE3
:10B760000AD0102B01D003B030BD037D012BFAD1DC
:10B770008288454B1A80F6E78479002CF3D1434A3E
:10B780001378022B49D0032B5ED0012BEBD140481C
:10B790000178002912D03F4B5C78002C5ED19C7858
:10B7A000002C5BD1DC78002C58D11C79002C55D1B1
:10B7B0005C79002C52D19B79002B4FD102230024BD
:10B7C00001A813700194FEF7F5F908282FD000287E
:10B7D00033D1019B002B2BD001222F4B1A70C2E7D3
:10B7E00000242E4B1C702E4B5A68294B1A70264B86
:10B7F00082881B889A42B6D10125244B01A81D706E
:10B800000194FEF7D7F9082811D0002815D1019B23
:10B81000002B0DD0204B1D70A5E7224901A80B700D
:10B82000032313700194FEF7C5F90828CFD10194C2
:10B83000FFF7AEFD002800D195E71B4B1B68002BDE
:10B8400000D190E798478EE7164B1C70174B1B688A
:10B85000002B00D187E70020984784E701240025CA
:10B860000139017001A814700195FEF7A3F90828A9
:10B8700007D00028E1D1019B002BD9D0064B1C70CA
:10B8800071E70195D4E7C0466E20002039270020DB
:10B890008D270020C82700208C2700201528002095
:10B8A0003C270020382700209027002094270020E4
:10B8B00030B5174B83B01B78002B26D0154C23785E
:10B8C000002B22D1144B1B78002B03D0FFF75EFD19
:10B8D00000281BD101252570002401A80194FEF742
:10B8E00069F9082807D000280AD1019B002B03D052
:10B8F0000A4B1D700AE00194FFF74AFD002804D0AE
:10B90000074B1B68002B00D09847002003B030BDC8
:10B910003C27002015280020392700208C270020F4
:10B920009027002075DF704776DF70477ADF704719
:10B930007BDF704710B5184B82B01888174B9842C0
:10B9400014D0174A174C13780133DBB21370217BE4
:10B9500099420DD200231370237C002B12D163690E
:10B96000002B03D0002201A80270984702B010BD3E
:10B970000D49FFF7D7FF0028F8D0A369002BF5D0B9
:10B980009847F3E73B21FFF7CFFF0028E7D0A369F3
:10B99000002BE4D09847E2E75A280020FFFF000080
:10B9A0008C2800205C2800208428002030B51C4B07
:10B9B0001C4A5B88118883B099420CD852889A42FD
:10B9C00009D3194B5B69002B03D0012201A8027037
:10B9D0009847164C0BE0154C2378002B0BD0124BDC
:10B9E0005B69002B03D0002201A802709847002356
:10B9F000237003B030BD0E4B0B4D1B78002B0CD0C9
:10BA0000A9680C4B00221868FDF7EEF80028EED06C
:10BA1000AB69002BEBD09847E9E76968F1E7C046CE
:10BA20007C280020842800205C2800205828002042
:10BA30008C28002078280020164902000B0070B5E1
:10BA400032CA32C332CA32C312681A600022124BA1
:10BA500001681A70002916D0104C0832200000F03E
:10BA6000BDFB2000FFF762FF00280BD101220C4B29
:10BA700052421A8000220B4B00211A700A480B4ACE
:10BA8000FDF77EF870BD0548FFF752FF0028EDD0A6
:10BA9000F8E7C0465C2800205828002084280020B1
:10BAA0005A2800208C2800207828002035B9010071
:10BAB00030B5038883B0112B3AD024D9122B08D08B
:10BAC000502B04D13D4CC288E3899A4250D003B038
:10BAD00030BD3B4C811D0822200000F07FFB394A1D
:10BAE00063881188994236D9374C2378002B51D07E
:10BAF000324B5B69002B03D0002201A802709847EB
:10BB000000232370E3E7102BE1D1010082882F4B43
:10BB100016311A802A48082200F060FB00222C4BC4
:10BB20001A70264BDB89002BD1D1FFF73FFFCEE700
:10BB30000122264B52421A800022254B1A70254BB7
:10BB40001868FDF7E1F80028C1D01C4B9B69002B59
:10BB5000BDD09847BBE752889A42C5D3174B5B6963
:10BB6000002B03D0012201A802709847164CC7E7AA
:10BB7000C38B022BABD11E33C35CDB07D5D4154B73
:10BB80001868FDF7C1F80028A1D0A369002B9ED04A
:10BB900098479CE70E4B094D1B78002B0CD0A968E9
:10BBA0000C4B00221868FDF71FF80028A8D0AB69DD
:10BBB000002BA5D09847A3E76968F1E75C2800202F
:10BBC0007C28002084280020582800205A280020A3
:10BBD0008C28002078280020A0DF7047A2DF704763
:10BBE000A6DF704763DF704710B5002808D0002932
:10BBF00006D00B88112B04D0502B09D0102B04D069
:10BC000010BD01235B428382FAE78B888382F7E7CA
:10BC1000CB88028A9A4209D082889A42F0D18369FD
:10BC2000002BEDD0CA8B20319847E9E7CA8B022A56
:10BC3000F2D12023CB5C013A134002D0012383755B
:10BC4000DEE78375DCE7C046F0B557464E4645460D
:10BC5000DE46E0B595B0040004A80200674BE0CBD7
:10BC6000E0C21B681360002C00D1C5E0002900D1A0
:10BC7000C2E001235B42A3820B682100A361002381
:10BC8000A375FFF7AFFF071E07D0380015B03CBC07
:10BC900090469946A246AB46F0BD237802A98B7028
:10BCA0000123A21C012099460B80FFF795FF071E78
:10BCB000EBD1032200216846FCF778FA02216A469C
:10BCC00088464F4B414613809378062293430B439B
:10BCD00069460DAD8B70163200212800FCF766FA1C
:10BCE00010218B4659462B7801AE0B432B706B46C7
:10BCF00069466B61237803228B73032330008B81A9
:10BD000000216F60EF602F61AF61FCF74FFA0123F4
:10BD10009A465B4651460B4333705B4606220B4303
:10BD20007370B37808A893434246134308229343A1
:10BD3000083293430B4314220021B370FCF736FA08
:10BD400003AB08934B4614220A936B469A85230053
:10BD500060880C3308AA29000996FFF73FFF071EE9
:10BD600093D11C2200212800FCF720FA08222B780E
:10BD700000211343042213436A462B7023783000BA
:10BD800093730223938103226F60EF602F616F61D1
:10BD9000AF61FCF70BFA0F225146337808A89343A2
:10BDA0000B43594613400B4351463370737893430A
:10BDB0000B4313405A46134306227370B3789343E0
:10BDC0004246134308229343083293430B43142201
:10BDD0000021B370FCF7EAF903AB08934B46142239
:10BDE0000A936B469A856088231D08AA2900099644
:10BDF000FFF7F4FE070048E70E2746E7A8D1010049
:10BE00001111000070B586B06B4604000E00DA8098
:10BE1000002821D0828A114B9A421BD0837D002BAF
:10BE200018D06B46DB880720142B11D802AD0021F7
:10BE300010222800FCF7BAF9A389A08A2B806B4650
:10BE40000633AB6001232900EE60AB70FFF7C8FE3C
:10BE500006B070BD0820FBE70E20F9E7FFFF0000E9
:10BE60001D4B1B78012B00D070471C4B1B681B0718
:10BE7000FAD1F0221A4B1B68134018D1194B1B68DA
:10BE800013421CD0154B1B681B07EDD1F022144B3D
:10BE90001B681340402BE7D1124B1B681342E3D1C0
:10BEA0008022C1230121D205DB00D150DCE7102B19
:10BEB00001D0302BEAD10B4B1B681342E6D10A4B61
:10BEC0000A4A1A6080220A4B12021A60024B1B783F
:10BED000012BD7D0C8E7C046E00F00F0E40F00F018
:10BEE000E80F00F0EC0F00F004050040DFFF07C092
:10BEF000186C00402EDF704751DF704710DF70472D
:10BF000061DF704710B508001100FEF7CDFC10BDD1
:10BF1000F0B54F464646D646C0B52C4F82B03B687A
:10BF200001AC5D425D412A4AEDB290461268002A9A
:10BF30000ED1002B46D102B01CBC90469946A246B9
:10BF4000F0BD00220021FCF729FA002D0DD00125BB
:10BF50002000FFF7D1FF05282CD00028F1D143465F
:10BF600001981B689847002DF1D10026194B9A467D
:10BF7000194B994653461B88210023804B461D6868
:10BF80002800FFF7BDFF052818D0002806D128009B
:10BF90003B689847002E07D00126EBE700220021DE
:10BFA000FCF7FCF9002EF7D120000025FFF7A4FFD5
:10BFB0000528D2D10126002DBDD1D7E70125002EBD
:10BFC000C6D0B8E7012601ACD0E7C04690280020D3
:10BFD0009C2800208E280020A028002070B5040096
:10BFE000072000290DD08D070BD10A4801600A49AE
:10BFF00020000A80094A0A491360FFF77FFF0028E2
:10C0000000D070BD0122074B16301A70FFF772FF87
:10C01000F7E7C046A02800208E28002094280020A2
:10C0200005BF010098280020002803D0024B1860AB
:10C03000002070470E20FCE79028002010B50A4B26
:10C040001B68002B08D09847002800D110BD0022A3
:10C050000021FCF7A3F9F9E7044B1B78002BF5D07E
:10C06000FFF756FFF2E7C0469428002098280020EA
:10C0700003210A4802680A430260094802680A4329
:10C0800002600849084A094B9B1A03DD043BC85863
:10C09000D050FBDC06488047064800472405004096
:10C0A0005405004054D201000020002070200020E0
:10C0B00061BE0100C1800100FEE7FEE7FEE7FEE78A
:10C0C000FEE7FEE7002243088B4274D303098B424C
:10C0D0005FD3030A8B4244D3030B8B4228D3030C58
:10C0E0008B420DD3FF22090212BA030C8B4202D3FA
:10C0F0001212090265D0030B8B4219D300E0090A22
:10C10000C30B8B4201D3CB03C01A5241830B8B422A
:10C1100001D38B03C01A5241430B8B4201D34B0313
:10C12000C01A5241030B8B4201D30B03C01A524178
:10C13000C30A8B4201D3CB02C01A5241830A8B42FD
:10C1400001D38B02C01A5241430A8B4201D34B02E6
:10C15000C01A5241030A8B4201D30B02C01A52414A
:10C16000CDD2C3098B4201D3CB01C01A52418309FE
:10C170008B4201D38B01C01A524143098B4201D338
:10C180004B01C01A524103098B4201D30B01C01A63
:10C190005241C3088B4201D3CB00C01A52418308DD
:10C1A0008B4201D38B00C01A524143088B4201D30A
:10C1B0004B00C01A5241411A00D20146524110466A
:10C1C0007047FFE701B5002000F006F802BDC04649
:10C1D0000029F7D076E770477047C046002310B5B6
:10C1E0009A4200D110BDCC5CC4540133F8E7000082
:10C1F0000FB40B4B13B51C68002C05D0A369002BA2
:10C2000002D1200000F058F805AB049AA168200084
:10C21000019300F06BF916BC08BC04B01847C04687
:10C22000002000200023C25C0133002AFBD1581EED
:10C2300070470000002310B5040003604360836072
:10C2400081814366C28103614361836119000822D1
:10C250005C30FBF7ABFF054B24626362044BA362C7
:10C26000044BE362044B236310BDC04629CA01009E
:10C2700051CA010089CA0100B5CA010010B50249BE
:10C2800000F08CF810BDC046B9CD010070B568252E
:10C290004A1E55430E002900743100F0A1F8041E17
:10C2A00008D000212A00016046600C30A06068328E
:10C2B000FBF77CFF200070BD836913B50400002BE1
:10C2C00028D18364C3640365134B144A1B688262DC
:10C2D0000193984201D101238361200000F020F8EE
:10C2E0006060200000F01CF8A060200000F018F84A
:10C2F0000022E06004216068FFF79CFF0122092111
:10C30000A068FFF797FF02221221E068FFF792FF73
:10C310000123A36113BDC046A4D001007DC201006A
:10C32000F8B51C4B07001E68B369002B02D1300022
:10C33000FFF7C2FF4836B4687368013B04D5336821
:10C34000002B07D03668F6E70C22A55E002D0DD035
:10C350006834F2E704213800FFF798FF30600028C6
:10C36000F0D10C2304003B602000F8BD20000A4BF4
:10C37000656625606560A560E36025616561A5610E
:10C38000082229005C30FBF711FF6563A563A564F3
:10C39000E564E9E7A4D001000100FFFFF7B5040060
:10C3A0000700002601914834002C01D13000FEBD69
:10C3B0006368A5680093009B013B009301D5246846
:10C3C000F2E7AB89012B08D90E22AB5E013304D012
:10C3D00029003800019B984706436835EBE70000C9
:10C3E000032370B5CD1C9D43083506000C2D1ED2CD
:10C3F0000C25A9421DD8300000F095FD254A14688F
:10C400002100002919D1244C2368002B03D13000CE
:10C4100000F0F8FA20602900300000F0F3FA431C25
:10C420002BD10C233000336000F07EFD03E0002DA3
:10C43000DFDA0C233360002070BD0B685B1B19D45E
:10C440000B2B03D90B60CC18256003E04B688C42A2
:10C450000DD11360300000F067FD200007220B3083
:10C46000231D9043C31AE7D05A42E250E4E76360C9
:10C470000C00EFE70C004968C3E70323C41C9C438E
:10C48000A042E1D0211A300000F0BCFA431CDBD1FD
:10C49000C7E7C046A4280020A8280020936810B54C
:10C4A000013B9360002B04DA9469A34207DB0A295D
:10C4B00005D01368581C10601970080010BD00F0FA
:10C4C000FFFA0100F9E7F8B506000F001400D518CF
:10C4D000AC4201D1002007E021783A003000FFF79C
:10C4E000DDFF0134431CF3D1F8BD0000F0B5A1B06D
:10C4F00003900F0016001D00002805D083690593E6
:10C50000002B01D1FFF7D8FE7B4B9F425CD1039BF0
:10C510005F68BB891B0763D53B69002B60D0002394
:10C5200008AC6361203363761033A376079535003A
:10C530002B78002B01D0252B5CD1AB1B05930CD0A5
:10C54000320039000398FFF7BEFF431C00D1C4E05E
:10C550006269059B9446634463612B78002B00D18C
:10C56000BBE0012200235242626004A954325218F7
:10C570006E1C2360E360A3601370A365317805220D
:10C580005E4800F0C5FC751C002835D12268D30632
:10C5900004D5532304A95B1820211970130704D56F
:10C5A000532304A95B182B21197033782A2B2CD024
:10C5B000350000210A20E3682A786E1C303A092AE7
:10C5C00064D900292ED026E04D4B9F4202D1039B17
:10C5D0009F689EE74B4B9F429BD1039BDF6898E788
:10C5E0003900039800F0D6FA002898D00120404284
:10C5F00021B0F0BD01359BE7404B2268C01A0123F2
:10C600008340134323602E00B8E7079B191D1B6866
:10C610000791002B01DB0B9304E05B42E3600223F4
:10C62000134323602B782E2B0AD16B782A2B35D11C
:10C63000079B02351A1D1B680792002B2BDB099301
:10C64000314E29780322300000F062FC002806D029
:10C650004023801B834022680135134323602978DF
:10C6600006222A486E1C217600F052FC00283AD09F
:10C67000274B002B25D10722079B07339343083311
:10C6800007936369049A9B18636150E74343012150
:10C690009B18350090E701235B42D0E700230A2076
:10C6A0001A000135636029786E1C3039092903D9D5
:10C6B000002BC5D00992C3E742430123521835002D
:10C6C000F1E707AB00933A00124B2100039800E01A
:10C6D00000BF0490049B0133D3D1BB895B0600D516
:10C6E00084E70D9884E707AB00933A00094B2100DB
:10C6F000039800F07FF8ECE7D8D1010018D20100D0
:10C70000F8D10100B8D101001ED2010022D20100EF
:10C7100000000000C7C40100F7B5150001938A6846
:10C720000B6900900C00934200DA130022002B608A
:10C7300043321278002A01D001332B6023689B0614
:10C7400002D52B6802332B60062723681F4027D0B1
:10C75000230043331B785A1E93412268920630D43B
:10C760002200019943320098089EB047431C25D00F
:10C77000062320682A68E16803400025042B03D1C2
:10C780008D1AEB43DB171D40A3682269934201DD3C
:10C790009B1AED180027BD4220D1002010E0013780
:10C7A000E3682A689B1ABB42D2DD220001231932BA
:10C7B00001990098089EB047431CF0D101204042E7
:10C7C000FEBD3020E1184331087021005A1C45316C
:10C7D0000978A218433202331170C1E72200012305
:10C7E0001A3201990098089EB047431CE6D00137E1
:10C7F000D1E70000F0B589B004920A0043320593F6
:10C80000039002920A7E0C000E9B6E2A00D186E0F5
:10C810001FD8632A33D008D8002A00D18CE0582AC8
:10C820004DD0250042352A7030E0642A01D0692AB3
:10C83000F7D1196825680A1D280629D508681A60E5
:10C84000002803DA2D23029A404213706B4E0A2708
:10C850004FE0732A74D008D86F2A1FD0702AE0D115
:10C86000202209680A43226003E0752A16D0782A3C
:10C87000D7D12200782145321170614E22E0250087
:10C880001A684235111D196013682B70012365E089
:10C8900008681A606906D3D500B2D1E7196825681F
:10C8A000081D186008682E0605D5544E08276F2A03
:10C8B0001BD00A2719E06D06F7D580B2F5E74531A0
:10C8C0004E4E0A7018682268011D0068196015062E
:10C8D00021D5D30702D520231A4322601027002830
:10C8E00003D1202322689A4322602300002243338D
:10C8F0001A706368A360002B58DB042221689143FF
:10C900002160002854D1029D002B5AD02500337895
:10C9100042352B7055E05506DBD580B2D9E71A6851
:10C920000D68101D4969186013682E0601D519603D
:10C9300002E06D06FBD519800023029D23614FE0C4
:10C940001A68111D1960156800216268280000F03E
:10C95000DFFA002801D0401B606063682361002378
:10C96000029A13703CE023692A0004990398059DFC
:10C97000A847431C3ED023689B0715D4079BE0685B
:10C98000984239DA180037E022000123193204995D
:10C990000398059EB047431C2CD00135E368079AE5
:10C9A0009B1AAB42F0DCE9E70025F7E70028ADD0A1
:10C9B000029D3900FFF70CFC735C013D2B700028D1
:10C9C000F7D1082F09D12368DB0706D563682269F0
:10C9D000934202DC3023013D2B70029B5B1B2361E1
:10C9E000059B07AA00932100049B0398FFF794FE80
:10C9F000431CB8D10120404209B0F0BD29D201004A
:10CA00003AD20100002370B5064C050008002360EF
:10CA100000F02EFB431C03D12368002B00D02B60B9
:10CA200070BDC046B028002070B50C000E25495FCF
:10CA300000F0C6FA002803DB636D1B18636570BD48
:10CA4000A389024A1340A381F9E7C046FFEFFFFF25
:10CA5000F8B51F008B8905000C001600DB0505D515
:10CA60000E23C95E0022022300F0D2F9A389054AF1
:10CA700028001340A38132000E23E15E3B0000F04A
:10CA800075F8F8BDFFEFFFFF70B50C000E25495F8C
:10CA900000F0BEF9A389421C03D1054A1340A381CB
:10CAA00070BD802252011343A3816065F8E7C04640
:10CAB000FFEFFFFF10B50E23C95E00F0E1F810BDD7
:10CAC000F8B505000E001400002804D08369002B7F
:10CAD00001D1FFF7F1FB224B9C422DD16C68A36979
:10CAE000A360A3891B0731D52369002B2ED02368AF
:10CAF0002269F7B2981A6369F6B2834205DC210015
:10CB0000280000F059F9002826D1A3680130013B24
:10CB1000A36023685A1C22601F706369834204D09B
:10CB2000A389DB071AD50A2E18D12100280000F0AE
:10CB300043F9002812D00FE00A4B9C4201D1AC68A7
:10CB4000CDE7094B9C42CAD1EC68C8E72100280018
:10CB500000F020F80028CAD0012676423000F8BD47
:10CB6000D8D10100F8D10100B8D1010070B505009D
:10CB7000080011000022064C22601A00FCF73AF966
:10CB8000431C03D12368002B00D02B6070BDC0462E
:10CB9000B0280020364B70B51D6806000C00002D33
:10CBA00005D0AB69002B02D12800FFF785FB314B84
:10CBB0009C420FD16C680C23E25E93B219072DD40E
:10CBC000D90611D409230120336037331343A381DD
:10CBD000404270BD284B9C4201D1AC68EBE7274B2B
:10CBE0009C42E8D1EC68E6E75B0713D5616B00294E
:10CBF00008D023004433994202D0300000F096F967
:10CC0000002363632422A3899343A38100236360E9
:10CC1000236923600823A2891343A3812369002B7E
:10CC20000BD1A0218022A389890092000B4093425E
:10CC300003D02100300000F027F90123A28913401E
:10CC400011D00023A36063695B42A36100202369C4
:10CC50008342BED10C23E25E1306BAD540231343B0
:10CC6000A3810138B5E7920700D46369A360EDE7BB
:10CC700000200020D8D10100F8D10100B8D1010076
:10CC8000002370B5064C05000800236000F0D0F9C1
:10CC9000431C03D12368002B00D02B6070BDC0461D
:10CCA000B0280020F7B58A8905000C00130760D46E
:10CCB0004B68002B04DC0B6C002B01DC0020FEBD5C
:10CCC000E76A002FFAD000232E682B6080235B01D7
:10CCD000216A1A4034D0606DA3895B0706D563686A
:10CCE000C01A636B002B01D0236CC01A0200216AAA
:10CCF00000232800E76AB847A189431C06D12B68A6
:10CD00001D2B30D82B4ADA40D3072CD50023636083
:10CD100023692360CB0405D5431C02D12B68002B6B
:10CD200000D16065616B2E600029C7D023004433B9
:10CD3000994202D0280000F0F9F800206063BEE7B5
:10CD400001232800B847431CC6D12B68002BC3D051
:10CD50001D2B01D0162B01D12E60AFE74023A289F5
:10CD60001343A381ABE740230B430120A38140423F
:10CD7000A5E70F69002FA1D00B680F60DB1B0193A3
:10CD80000023920700D14B69A360019B002B00DCBC
:10CD900094E7019B3A00216A2800A66AB047002860
:10CDA00003DC4023A2891343DFE7019B3F181B1AD2
:10CDB0000193EAE7010040200B6970B505000C0003
:10CDC000002B01D1002070BD002804D08369002B06
:10CDD00001D1FFF771FA0B4B9C4209D16C680C2210
:10CDE000A35E002BEED021002800FFF75BFFEAE7EF
:10CDF000054B9C4201D1AC68F1E7044B9C42EED15B
:10CE0000EC68ECE7D8D10100F8D10100B8D10100FD
:10CE100070B50500080011000022064C22601A00BF
:10CE200000F01EF9431C03D12368002B00D02B60B7
:10CE300070BDC046B028002070B50E001D000E2346
:10CE4000C95E96B01400002907DA00232B60B3896D
:10CE50001B0611D48023DB000FE06A4600F0C4F803
:10CE60000028F2DBF022019B12021340054A9B18B6
:10CE70005A4253412B60EDE740230020236016B057
:10CE800070BDC04600E0FFFFF7B502268B890500A4
:10CE90000C00334206D02300473323602361012373
:10CEA0006361F7BD01AB6A46FFF7C6FF0099070053
:10CEB0002800FFF795FA002808D10C22A35E9A05F6
:10CEC000EFD4032293431E43A681E4E70F4BAB62EA
:10CED0008023A28920601343A381009B20616361AA
:10CEE000019B002B0DD00E23E15E280000F08EF890
:10CEF000002806D00322A38993431A000123134379
:10CF0000A381A0893843A081CBE7C0467DC2010040
:10CF1000C9B28218904201D10020704703788B4239
:10CF2000FBD00130F6E770477047000070B5050090
:10CF3000002910D00C1F2368002B00DAE418280009
:10CF4000FFF7F1FF1D4A1368002B05D163601460E1
:10CF50002800FFF7E9FF70BDA34209D921686018D6
:10CF60008342F3D118685B6841182160EEE7130033
:10CF70005A68002A01D0A242F9D919685818A0426B
:10CF80000BD120680918581819608242E0D1106846
:10CF90005268411819605A60DAE7A04202D90C239E
:10CFA0002B60D5E721686018824203D1106852686F
:10CFB0004118216062605C60CAE7C046A428002076
:10CFC00070B50500080011000022064C22601A000E
:10CFD000FBF71EFF431C03D12368002B00D02B60FE
:10CFE00070BDC046B0280020002370B5064C050077
:10CFF00008001100236000F023F8431C03D12368CC
:10D00000002B00D02B6070BDB0280020002370B52D
:10D01000064C05000800236000F01AF8431C03D1F9
:10D020002368002B00D02B6070BDC046B0280020C4
:10D0300058220120014B40421A607047B02800205E
:10D0400058220120014B40421A607047B02800204E
:10D050005822024B00201A607047C046B0280020BA
:10D0600058220120014B40421A607047B02800202E
:10D07000044A1368002B00D1034B181810601800E5
:10D080007047C046AC280020B8280020F8B5C0463C
:10D09000F8BC08BC9E467047F8B5C046F8BC08BC52
:10D0A0009E467047042000202A9E0100409E0100F9
:10D0B000409E0100509D0100949D0100E29E0100F0
:10D0C000229F0100D69E0100249D0100E09C0100EA
:10D0D000249D0100E09C0100109D0100E49D0100E1
:10D0E000E49D0100E49D0100E49D0100E49D010038
:10D0F000CA9E0100C69D0100AC9E01008E9E0100EB
:10D10000109D0100109D01003CA1010058A10100EB
:10D1100058A10100BEA1010004A201005EA201000D
:10D12000A0A2010038A201006CA001003CA00100F7
:10D130006CA001003CA00100A8A1010098A0010082
:10D1400098A0010098A0010098A0010098A00100FB
:10D15000DEA00100FCA00100D2A20100F8A20100A3
:10D1600022A1010022A1010010000300059C010082
:10D1700011000300059C01001000000011000000D8
:10D180000B09080A0100000000509D004E6F7264F8
:10D1900069635F55415254002573000053746172F6
:10D1A000742E2E2E0A0000009ECADC240EE5A9E093
:10D1B00093F3A3B50000406E0000000000000000E3
:10D1C000000000000000000000000000000000005F
:10D1D000000000000000000000000000000000004F
:10D1E000000000000000000000000000000000003F
:10D1F000000000000000000000000000000000002F
:10D20000000000000000000000000000000000001E
:10D210000000000000000000232D302B2000686C6F
:10D220004C00656667454647003031323334353649
:10D230003738394142434445460030313233343582
:0CD24000363738396162636465660000AF
:08D24C0074AEFF7F0100000039
:10D254000420002000000000D8D10100F8D1010012
:10D26400B8D1010000000000000000000000000030
:10D2740000000000000000000000000000000000AA
:10D28400000000000000000000000000000000009A
:10D29400000000000000000000000000000000008A
:10D2A400000000000000000000000000000000007A
:10D2B400000000000100000001000200FFFFFFFF6A
:040000031000C071B8
:00000001FF
